{
  "address": "0x8140F757b0F9bA25EFEf2098dF162CF0116e731a",
  "abi": [
    {
      "inputs": [],
      "stateMutability": "nonpayable",
      "type": "constructor"
    },
    {
      "anonymous": false,
      "inputs": [
        {
          "indexed": false,
          "internalType": "address",
          "name": "token",
          "type": "address"
        },
        {
          "indexed": false,
          "internalType": "uint256",
          "name": "amount",
          "type": "uint256"
        },
        {
          "indexed": false,
          "internalType": "uint256",
          "name": "id",
          "type": "uint256"
        }
      ],
      "name": "Lock",
      "type": "event"
    },
    {
      "anonymous": false,
      "inputs": [
        {
          "indexed": true,
          "internalType": "address",
          "name": "previousOwner",
          "type": "address"
        },
        {
          "indexed": true,
          "internalType": "address",
          "name": "newOwner",
          "type": "address"
        }
      ],
      "name": "OwnershipTransferred",
      "type": "event"
    },
    {
      "anonymous": false,
      "inputs": [
        {
          "indexed": false,
          "internalType": "address",
          "name": "withdrawer",
          "type": "address"
        },
        {
          "indexed": false,
          "internalType": "uint256",
          "name": "amount",
          "type": "uint256"
        }
      ],
      "name": "Withdraw",
      "type": "event"
    },
    {
      "inputs": [
        {
          "internalType": "address",
          "name": "",
          "type": "address"
        },
        {
          "internalType": "uint256",
          "name": "",
          "type": "uint256"
        }
      ],
      "name": "depositsByWithdrawer",
      "outputs": [
        {
          "internalType": "uint256",
          "name": "",
          "type": "uint256"
        }
      ],
      "stateMutability": "view",
      "type": "function"
    },
    {
      "inputs": [],
      "name": "depositsCount",
      "outputs": [
        {
          "internalType": "uint256",
          "name": "",
          "type": "uint256"
        }
      ],
      "stateMutability": "view",
      "type": "function"
    },
    {
      "inputs": [
        {
          "internalType": "address",
          "name": "_token",
          "type": "address"
        }
      ],
      "name": "getDepositsByTokenAddress",
      "outputs": [
        {
          "internalType": "uint256[]",
          "name": "",
          "type": "uint256[]"
        }
      ],
      "stateMutability": "view",
      "type": "function"
    },
    {
      "inputs": [
        {
          "internalType": "address",
          "name": "_withdrawer",
          "type": "address"
        }
      ],
      "name": "getDepositsByWithdrawer",
      "outputs": [
        {
          "internalType": "uint256[]",
          "name": "",
          "type": "uint256[]"
        }
      ],
      "stateMutability": "view",
      "type": "function"
    },
    {
      "inputs": [
        {
          "internalType": "address",
          "name": "_token",
          "type": "address"
        }
      ],
      "name": "getTokenTotalLockedBalance",
      "outputs": [
        {
          "internalType": "uint256",
          "name": "",
          "type": "uint256"
        }
      ],
      "stateMutability": "view",
      "type": "function"
    },
    {
      "inputs": [],
      "name": "lockFee",
      "outputs": [
        {
          "internalType": "uint256",
          "name": "",
          "type": "uint256"
        }
      ],
      "stateMutability": "view",
      "type": "function"
    },
    {
      "inputs": [
        {
          "internalType": "contract IERC20",
          "name": "_token",
          "type": "address"
        },
        {
          "internalType": "address",
          "name": "_withdrawer",
          "type": "address"
        },
        {
          "internalType": "uint256",
          "name": "_amount",
          "type": "uint256"
        },
        {
          "internalType": "uint256",
          "name": "_unlockTimestamp",
          "type": "uint256"
        }
      ],
      "name": "lockTokens",
      "outputs": [
        {
          "internalType": "uint256",
          "name": "_id",
          "type": "uint256"
        }
      ],
      "stateMutability": "payable",
      "type": "function"
    },
    {
      "inputs": [
        {
          "internalType": "uint256",
          "name": "",
          "type": "uint256"
        }
      ],
      "name": "lockedToken",
      "outputs": [
        {
          "internalType": "contract IERC20",
          "name": "token",
          "type": "address"
        },
        {
          "internalType": "address",
          "name": "withdrawer",
          "type": "address"
        },
        {
          "internalType": "uint256",
          "name": "amount",
          "type": "uint256"
        },
        {
          "internalType": "uint256",
          "name": "unlockTimestamp",
          "type": "uint256"
        },
        {
          "internalType": "bool",
          "name": "withdrawn",
          "type": "bool"
        }
      ],
      "stateMutability": "view",
      "type": "function"
    },
    {
      "inputs": [],
      "name": "marketingAddress",
      "outputs": [
        {
          "internalType": "address",
          "name": "",
          "type": "address"
        }
      ],
      "stateMutability": "view",
      "type": "function"
    },
    {
      "inputs": [],
      "name": "owner",
      "outputs": [
        {
          "internalType": "address",
          "name": "",
          "type": "address"
        }
      ],
      "stateMutability": "view",
      "type": "function"
    },
    {
      "inputs": [],
      "name": "renounceOwnership",
      "outputs": [],
      "stateMutability": "nonpayable",
      "type": "function"
    },
    {
      "inputs": [
        {
          "internalType": "uint256",
          "name": "_lockFee",
          "type": "uint256"
        }
      ],
      "name": "setLockFee",
      "outputs": [],
      "stateMutability": "nonpayable",
      "type": "function"
    },
    {
      "inputs": [
        {
          "internalType": "address",
          "name": "_marketingAddress",
          "type": "address"
        }
      ],
      "name": "setMarketingAddress",
      "outputs": [],
      "stateMutability": "nonpayable",
      "type": "function"
    },
    {
      "inputs": [
        {
          "internalType": "address",
          "name": "newOwner",
          "type": "address"
        }
      ],
      "name": "transferOwnership",
      "outputs": [],
      "stateMutability": "nonpayable",
      "type": "function"
    },
    {
      "inputs": [
        {
          "internalType": "address",
          "name": "",
          "type": "address"
        },
        {
          "internalType": "address",
          "name": "",
          "type": "address"
        }
      ],
      "name": "walletTokenBalance",
      "outputs": [
        {
          "internalType": "uint256",
          "name": "",
          "type": "uint256"
        }
      ],
      "stateMutability": "view",
      "type": "function"
    },
    {
      "inputs": [
        {
          "internalType": "uint256",
          "name": "_id",
          "type": "uint256"
        }
      ],
      "name": "withdrawTokens",
      "outputs": [],
      "stateMutability": "nonpayable",
      "type": "function"
    }
  ],
  "transactionHash": "0x4c8b7babb2b4b746b8e927debcf25393876a1f75af4f9b3ba72b01532e653de9",
  "args": [],
  "solcInputHash": "3eb62949c7b0d89a97e973f3449bef2e",
  "bytecode": "0x608060405267016345785d8a000060065534801561001c57600080fd5b506100263361003d565b600780546001600160a01b0319163317905561008d565b600080546001600160a01b038381166001600160a01b0319831681178455604051919092169283917f8be0079c531659141344cd1fd0a4f28419497f9722a3daafe3b4186f6b6457e09190a35050565b6114358061009c6000396000f3fe6080604052600436106100f35760003560e01c80638da5cb5b1161008a578063b78a153211610059578063b78a153214610280578063b9e7df1c146102a0578063bb941cff146102d8578063f2fde38b14610367576100f3565b80638da5cb5b146101ee578063906e9dd0146102205780639f7260bd14610240578063a5ece94114610260576100f3565b806356a06235116100c657806356a0623514610190578063715018a6146101a65780637d533c1e146101bb57806386f65a22146101ce576100f3565b806323c4a921146100f8578063315a095d1461012b5780634506e9351461014d578063469d86e214610163575b600080fd5b34801561010457600080fd5b506101186101133660046111d6565b610387565b6040519081526020015b60405180910390f35b34801561013757600080fd5b5061014b610146366004611266565b6103b8565b005b34801561015957600080fd5b5061011860015481565b34801561016f57600080fd5b5061018361017e366004611182565b6105db565b60405161012291906112b2565b34801561019c57600080fd5b5061011860065481565b3480156101b257600080fd5b5061014b610647565b6101186101c9366004611221565b61067d565b3480156101da57600080fd5b506101836101e9366004611182565b610c26565b3480156101fa57600080fd5b506000546001600160a01b03165b6040516001600160a01b039091168152602001610122565b34801561022c57600080fd5b5061014b61023b366004611182565b610c90565b34801561024c57600080fd5b5061014b61025b366004611266565b610cdc565b34801561026c57600080fd5b50600754610208906001600160a01b031681565b34801561028c57600080fd5b5061011861029b366004611182565b610d0b565b3480156102ac57600080fd5b506101186102bb36600461119e565b600560209081526000928352604080842090915290825290205481565b3480156102e457600080fd5b506103326102f3366004611266565b6004602081905260009182526040909120805460018201546002830154600384015493909401546001600160a01b039283169492909116929060ff1685565b604080516001600160a01b0396871681529590941660208601529284019190915260608301521515608082015260a001610122565b34801561037357600080fd5b5061014b610382366004611182565b610d8b565b600360205281600052604060002081815481106103a357600080fd5b90600052602060002001600091509150505481565b60008181526004602052604090206003015442101561041e5760405162461bcd60e51b815260206004820152601860248201527f546f6b656e7320617265207374696c6c206c6f636b656421000000000000000060448201526064015b60405180910390fd5b6000818152600460205260409020600101546001600160a01b031633146104875760405162461bcd60e51b815260206004820152601b60248201527f596f7520617265206e6f742074686520776974686472617765722100000000006044820152606401610415565b6000818152600460208190526040909120015460ff16156104ea5760405162461bcd60e51b815260206004820152601d60248201527f546f6b656e732061726520616c72656164792077697468647261776e210000006044820152606401610415565b6000818152600460208181526040808420928301805460ff19166001179055600283015492546001600160a01b03168452600582528084203385529091529091205461053591610e23565b600082815260046020818152604080842080546001600160a01b03168552600583528185203380875290845282862096909655938690529181526002909201548151938452918301919091527f884edad9ce6fa2440d8a54cc123490eb96d2768479d49ff9c7366125a9424364910160405180910390a16000818152600460205260409020600281015490546105d8916001600160a01b03909116903390610e36565b50565b6001600160a01b03811660009081526003602090815260409182902080548351818402810184019094528084526060939283018282801561063b57602002820191906000526020600020905b815481526020019060010190808311610627575b50505050509050919050565b6000546001600160a01b031633146106715760405162461bcd60e51b815260040161041590611329565b61067b6000610e9e565b565b60008083116106c65760405162461bcd60e51b8152602060048201526015602482015274546f6b656e20616d6f756e7420746f6f206c6f772160581b6044820152606401610415565b6402540be40082106107265760405162461bcd60e51b815260206004820152602360248201527f556e6c6f636b2074696d657374616d70206973206e6f7420696e207365636f6e60448201526264732160e81b6064820152608401610415565b4282116107845760405162461bcd60e51b815260206004820152602660248201527f556e6c6f636b2074696d657374616d70206973206e6f7420696e20746865206660448201526575747572652160d01b6064820152608401610415565b604051636eb1769f60e11b815233600482015230602482015283906001600160a01b0387169063dd62ed3e9060440160206040518083038186803b1580156107cb57600080fd5b505afa1580156107df573d6000803e3d6000fd5b505050506040513d601f19601f82011682018060405250810190610803919061127e565b10156108495760405162461bcd60e51b8152602060048201526015602482015274417070726f766520746f6b656e732066697273742160581b6044820152606401610415565b6006543410156108935760405162461bcd60e51b81526020600482015260156024820152744e65656420746f20706179206c6f636b206665652160581b6044820152606401610415565b6040516370a0823160e01b81523060048201526000906001600160a01b038716906370a082319060240160206040518083038186803b1580156108d557600080fd5b505afa1580156108e9573d6000803e3d6000fd5b505050506040513d601f19601f8201168201806040525081019061090d919061127e565b90506109246001600160a01b038716333087610eee565b6040516370a0823160e01b81523060048201526000906001600160a01b038816906370a082319060240160206040518083038186803b15801561096657600080fd5b505afa15801561097a573d6000803e3d6000fd5b505050506040513d601f19601f8201168201806040525081019061099e919061127e565b90506109aa8183610e23565b6007546040519196506001600160a01b0316903480156108fc02916000818181858888f193505050501580156109e4573d6000803e3d6000fd5b506001600160a01b0387166000908152600560209081526040808320338452909152902054610a139086610f2c565b6001600160a01b038816600090815260056020908152604080832033845290915281209190915560018054909190610a4a906113b9565b9190508190559250866004600085815260200190815260200160002060000160006101000a8154816001600160a01b0302191690836001600160a01b03160217905550856004600085815260200190815260200160002060010160006101000a8154816001600160a01b0302191690836001600160a01b0316021790555084600460008581526020019081526020016000206002018190555083600460008581526020019081526020016000206003018190555060006004600085815260200190815260200160002060040160006101000a81548160ff02191690831515021790555060026000886001600160a01b03166001600160a01b0316815260200190815260200160002083908060018154018082558091505060019003906000526020600020016000909190919091505560036000876001600160a01b03166001600160a01b031681526020019081526020016000208390806001815401808255809150506001900390600052602060002001600090919091909150557f49eaf4942f1237055eb4cfa5f31c9dfe50d5b4ade01e021f7de8be2fbbde557b878685604051610c14939291906001600160a01b039390931683526020830191909152604082015260600190565b60405180910390a15050949350505050565b6001600160a01b03811660009081526002602090815260409182902080548351818402810184019094528084526060939283018282801561063b57602002820191906000526020600020908154815260200190600101908083116106275750505050509050919050565b6000546001600160a01b03163314610cba5760405162461bcd60e51b815260040161041590611329565b600780546001600160a01b0319166001600160a01b0392909216919091179055565b6000546001600160a01b03163314610d065760405162461bcd60e51b815260040161041590611329565b600655565b6040516370a0823160e01b81523060048201526000906001600160a01b038316906370a082319060240160206040518083038186803b158015610d4d57600080fd5b505afa158015610d61573d6000803e3d6000fd5b505050506040513d601f19601f82011682018060405250810190610d85919061127e565b92915050565b6000546001600160a01b03163314610db55760405162461bcd60e51b815260040161041590611329565b6001600160a01b038116610e1a5760405162461bcd60e51b815260206004820152602660248201527f4f776e61626c653a206e6577206f776e657220697320746865207a65726f206160448201526564647265737360d01b6064820152608401610415565b6105d881610e9e565b6000610e2f8284611376565b9392505050565b6040516001600160a01b038316602482015260448101829052610e9990849063a9059cbb60e01b906064015b60408051601f198184030181529190526020810180516001600160e01b03166001600160e01b031990931692909217909152610f38565b505050565b600080546001600160a01b038381166001600160a01b0319831681178455604051919092169283917f8be0079c531659141344cd1fd0a4f28419497f9722a3daafe3b4186f6b6457e09190a35050565b6040516001600160a01b0380851660248301528316604482015260648101829052610f269085906323b872dd60e01b90608401610e62565b50505050565b6000610e2f828461135e565b6000610f8d826040518060400160405280602081526020017f5361666545524332303a206c6f772d6c6576656c2063616c6c206661696c6564815250856001600160a01b031661100a9092919063ffffffff16565b805190915015610e995780806020019051810190610fab9190611201565b610e995760405162461bcd60e51b815260206004820152602a60248201527f5361666545524332303a204552433230206f7065726174696f6e20646964206e6044820152691bdd081cdd58d8d9595960b21b6064820152608401610415565b60606110198484600085611021565b949350505050565b6060824710156110825760405162461bcd60e51b815260206004820152602660248201527f416464726573733a20696e73756666696369656e742062616c616e636520666f6044820152651c8818d85b1b60d21b6064820152608401610415565b843b6110d05760405162461bcd60e51b815260206004820152601d60248201527f416464726573733a2063616c6c20746f206e6f6e2d636f6e74726163740000006044820152606401610415565b600080866001600160a01b031685876040516110ec9190611296565b60006040518083038185875af1925050503d8060008114611129576040519150601f19603f3d011682016040523d82523d6000602084013e61112e565b606091505b509150915061113e828286611149565b979650505050505050565b60608315611158575081610e2f565b8251156111685782518084602001fd5b8160405162461bcd60e51b815260040161041591906112f6565b600060208284031215611193578081fd5b8135610e2f816113ea565b600080604083850312156111b0578081fd5b82356111bb816113ea565b915060208301356111cb816113ea565b809150509250929050565b600080604083850312156111e8578182fd5b82356111f3816113ea565b946020939093013593505050565b600060208284031215611212578081fd5b81518015158114610e2f578182fd5b60008060008060808587031215611236578182fd5b8435611241816113ea565b93506020850135611251816113ea565b93969395505050506040820135916060013590565b600060208284031215611277578081fd5b5035919050565b60006020828403121561128f578081fd5b5051919050565b600082516112a881846020870161138d565b9190910192915050565b6020808252825182820181905260009190848201906040850190845b818110156112ea578351835292840192918401916001016112ce565b50909695505050505050565b600060208252825180602084015261131581604085016020870161138d565b601f01601f19169190910160400192915050565b6020808252818101527f4f776e61626c653a2063616c6c6572206973206e6f7420746865206f776e6572604082015260600190565b60008219821115611371576113716113d4565b500190565b600082821015611388576113886113d4565b500390565b60005b838110156113a8578181015183820152602001611390565b83811115610f265750506000910152565b60006000198214156113cd576113cd6113d4565b5060010190565b634e487b7160e01b600052601160045260246000fd5b6001600160a01b03811681146105d857600080fdfea26469706673582212201956c1fec1aec67f53e73217fd58d572481614b1569d11172fe65afe4fcdcb8064736f6c63430008020033",
  "devdoc": {
    "kind": "dev",
    "methods": {
      "owner()": {
        "details": "Returns the address of the current owner."
      },
      "renounceOwnership()": {
        "details": "Leaves the contract without owner. It will not be possible to call `onlyOwner` functions anymore. Can only be called by the current owner. NOTE: Renouncing ownership will leave the contract without an owner, thereby removing any functionality that is only available to the owner."
      },
      "transferOwnership(address)": {
        "details": "Transfers ownership of the contract to a new account (`newOwner`). Can only be called by the current owner."
      }
    },
    "version": 1
  },
  "userdoc": {
    "kind": "user",
    "methods": {},
    "version": 1
  },
  "storageLayout": {
    "storage": [
      {
        "astId": 387,
        "contract": "contracts/locker/VarietyLocker.sol:VarietyLocker",
        "label": "_owner",
        "offset": 0,
        "slot": "0",
        "type": "t_address"
      },
      {
        "astId": 7522,
        "contract": "contracts/locker/VarietyLocker.sol:VarietyLocker",
        "label": "depositsCount",
        "offset": 0,
        "slot": "1",
        "type": "t_uint256"
      },
      {
        "astId": 7527,
        "contract": "contracts/locker/VarietyLocker.sol:VarietyLocker",
        "label": "depositsByTokenAddress",
        "offset": 0,
        "slot": "2",
        "type": "t_mapping(t_address,t_array(t_uint256)dyn_storage)"
      },
      {
        "astId": 7532,
        "contract": "contracts/locker/VarietyLocker.sol:VarietyLocker",
        "label": "depositsByWithdrawer",
        "offset": 0,
        "slot": "3",
        "type": "t_mapping(t_address,t_array(t_uint256)dyn_storage)"
      },
      {
        "astId": 7537,
        "contract": "contracts/locker/VarietyLocker.sol:VarietyLocker",
        "label": "lockedToken",
        "offset": 0,
        "slot": "4",
        "type": "t_mapping(t_uint256,t_struct(Items)7520_storage)"
      },
      {
        "astId": 7543,
        "contract": "contracts/locker/VarietyLocker.sol:VarietyLocker",
        "label": "walletTokenBalance",
        "offset": 0,
        "slot": "5",
        "type": "t_mapping(t_address,t_mapping(t_address,t_uint256))"
      },
      {
        "astId": 7546,
        "contract": "contracts/locker/VarietyLocker.sol:VarietyLocker",
        "label": "lockFee",
        "offset": 0,
        "slot": "6",
        "type": "t_uint256"
      },
      {
        "astId": 7548,
        "contract": "contracts/locker/VarietyLocker.sol:VarietyLocker",
        "label": "marketingAddress",
        "offset": 0,
        "slot": "7",
        "type": "t_address"
      }
    ],
    "types": {
      "t_address": {
        "encoding": "inplace",
        "label": "address",
        "numberOfBytes": "20"
      },
      "t_array(t_uint256)dyn_storage": {
        "base": "t_uint256",
        "encoding": "dynamic_array",
        "label": "uint256[]",
        "numberOfBytes": "32"
      },
      "t_bool": {
        "encoding": "inplace",
        "label": "bool",
        "numberOfBytes": "1"
      },
      "t_contract(IERC20)1316": {
        "encoding": "inplace",
        "label": "contract IERC20",
        "numberOfBytes": "20"
      },
      "t_mapping(t_address,t_array(t_uint256)dyn_storage)": {
        "encoding": "mapping",
        "key": "t_address",
        "label": "mapping(address => uint256[])",
        "numberOfBytes": "32",
        "value": "t_array(t_uint256)dyn_storage"
      },
      "t_mapping(t_address,t_mapping(t_address,t_uint256))": {
        "encoding": "mapping",
        "key": "t_address",
        "label": "mapping(address => mapping(address => uint256))",
        "numberOfBytes": "32",
        "value": "t_mapping(t_address,t_uint256)"
      },
      "t_mapping(t_address,t_uint256)": {
        "encoding": "mapping",
        "key": "t_address",
        "label": "mapping(address => uint256)",
        "numberOfBytes": "32",
        "value": "t_uint256"
      },
      "t_mapping(t_uint256,t_struct(Items)7520_storage)": {
        "encoding": "mapping",
        "key": "t_uint256",
        "label": "mapping(uint256 => struct VarietyLocker.Items)",
        "numberOfBytes": "32",
        "value": "t_struct(Items)7520_storage"
      },
      "t_struct(Items)7520_storage": {
        "encoding": "inplace",
        "label": "struct VarietyLocker.Items",
        "members": [
          {
            "astId": 7511,
            "contract": "contracts/locker/VarietyLocker.sol:VarietyLocker",
            "label": "token",
            "offset": 0,
            "slot": "0",
            "type": "t_contract(IERC20)1316"
          },
          {
            "astId": 7513,
            "contract": "contracts/locker/VarietyLocker.sol:VarietyLocker",
            "label": "withdrawer",
            "offset": 0,
            "slot": "1",
            "type": "t_address"
          },
          {
            "astId": 7515,
            "contract": "contracts/locker/VarietyLocker.sol:VarietyLocker",
            "label": "amount",
            "offset": 0,
            "slot": "2",
            "type": "t_uint256"
          },
          {
            "astId": 7517,
            "contract": "contracts/locker/VarietyLocker.sol:VarietyLocker",
            "label": "unlockTimestamp",
            "offset": 0,
            "slot": "3",
            "type": "t_uint256"
          },
          {
            "astId": 7519,
            "contract": "contracts/locker/VarietyLocker.sol:VarietyLocker",
            "label": "withdrawn",
            "offset": 0,
            "slot": "4",
            "type": "t_bool"
          }
        ],
        "numberOfBytes": "160"
      },
      "t_uint256": {
        "encoding": "inplace",
        "label": "uint256",
        "numberOfBytes": "32"
      }
    }
  }
}