{
  "address": "0x8Dd5d27874D877666193251756334b9291ED114F",
  "abi": [
    {
      "inputs": [
        {
          "internalType": "address",
          "name": "trustedForwarder",
          "type": "address"
        }
      ],
      "stateMutability": "nonpayable",
      "type": "constructor"
    },
    {
      "anonymous": false,
      "inputs": [
        {
          "indexed": true,
          "internalType": "address",
          "name": "owner",
          "type": "address"
        },
        {
          "indexed": true,
          "internalType": "address",
          "name": "spender",
          "type": "address"
        },
        {
          "indexed": false,
          "internalType": "uint256",
          "name": "value",
          "type": "uint256"
        }
      ],
      "name": "Approval",
      "type": "event"
    },
    {
      "anonymous": false,
      "inputs": [
        {
          "indexed": true,
          "internalType": "address",
          "name": "caller",
          "type": "address"
        }
      ],
      "name": "MetaTxnsDisabled",
      "type": "event"
    },
    {
      "anonymous": false,
      "inputs": [
        {
          "indexed": true,
          "internalType": "address",
          "name": "caller",
          "type": "address"
        }
      ],
      "name": "MetaTxnsEnabled",
      "type": "event"
    },
    {
      "anonymous": false,
      "inputs": [
        {
          "indexed": false,
          "internalType": "address",
          "name": "account",
          "type": "address"
        }
      ],
      "name": "Paused",
      "type": "event"
    },
    {
      "anonymous": false,
      "inputs": [
        {
          "indexed": true,
          "internalType": "bytes32",
          "name": "role",
          "type": "bytes32"
        },
        {
          "indexed": true,
          "internalType": "bytes32",
          "name": "previousAdminRole",
          "type": "bytes32"
        },
        {
          "indexed": true,
          "internalType": "bytes32",
          "name": "newAdminRole",
          "type": "bytes32"
        }
      ],
      "name": "RoleAdminChanged",
      "type": "event"
    },
    {
      "anonymous": false,
      "inputs": [
        {
          "indexed": true,
          "internalType": "bytes32",
          "name": "role",
          "type": "bytes32"
        },
        {
          "indexed": true,
          "internalType": "address",
          "name": "account",
          "type": "address"
        },
        {
          "indexed": true,
          "internalType": "address",
          "name": "sender",
          "type": "address"
        }
      ],
      "name": "RoleGranted",
      "type": "event"
    },
    {
      "anonymous": false,
      "inputs": [
        {
          "indexed": true,
          "internalType": "bytes32",
          "name": "role",
          "type": "bytes32"
        },
        {
          "indexed": true,
          "internalType": "address",
          "name": "account",
          "type": "address"
        },
        {
          "indexed": true,
          "internalType": "address",
          "name": "sender",
          "type": "address"
        }
      ],
      "name": "RoleRevoked",
      "type": "event"
    },
    {
      "anonymous": false,
      "inputs": [
        {
          "indexed": true,
          "internalType": "address",
          "name": "sender",
          "type": "address"
        },
        {
          "indexed": true,
          "internalType": "address",
          "name": "token",
          "type": "address"
        },
        {
          "indexed": false,
          "internalType": "uint256",
          "name": "value",
          "type": "uint256"
        }
      ],
      "name": "TokensRescued",
      "type": "event"
    },
    {
      "anonymous": false,
      "inputs": [
        {
          "indexed": true,
          "internalType": "address",
          "name": "from",
          "type": "address"
        },
        {
          "indexed": true,
          "internalType": "address",
          "name": "to",
          "type": "address"
        },
        {
          "indexed": false,
          "internalType": "uint256",
          "name": "value",
          "type": "uint256"
        }
      ],
      "name": "Transfer",
      "type": "event"
    },
    {
      "anonymous": false,
      "inputs": [
        {
          "indexed": false,
          "internalType": "address",
          "name": "account",
          "type": "address"
        }
      ],
      "name": "Unpaused",
      "type": "event"
    },
    {
      "inputs": [],
      "name": "DEFAULT_ADMIN_ROLE",
      "outputs": [
        {
          "internalType": "bytes32",
          "name": "",
          "type": "bytes32"
        }
      ],
      "stateMutability": "view",
      "type": "function"
    },
    {
      "inputs": [],
      "name": "DOMAIN_SEPARATOR",
      "outputs": [
        {
          "internalType": "bytes32",
          "name": "",
          "type": "bytes32"
        }
      ],
      "stateMutability": "view",
      "type": "function"
    },
    {
      "inputs": [],
      "name": "MINTER_ROLE",
      "outputs": [
        {
          "internalType": "bytes32",
          "name": "",
          "type": "bytes32"
        }
      ],
      "stateMutability": "view",
      "type": "function"
    },
    {
      "inputs": [],
      "name": "PAUSER_ROLE",
      "outputs": [
        {
          "internalType": "bytes32",
          "name": "",
          "type": "bytes32"
        }
      ],
      "stateMutability": "view",
      "type": "function"
    },
    {
      "inputs": [],
      "name": "RESCUER_ROLE",
      "outputs": [
        {
          "internalType": "bytes32",
          "name": "",
          "type": "bytes32"
        }
      ],
      "stateMutability": "view",
      "type": "function"
    },
    {
      "inputs": [],
      "name": "ROUTER_ROLE",
      "outputs": [
        {
          "internalType": "bytes32",
          "name": "",
          "type": "bytes32"
        }
      ],
      "stateMutability": "view",
      "type": "function"
    },
    {
      "inputs": [],
      "name": "TAKE_FEE_ROLE",
      "outputs": [
        {
          "internalType": "bytes32",
          "name": "",
          "type": "bytes32"
        }
      ],
      "stateMutability": "view",
      "type": "function"
    },
    {
      "inputs": [
        {
          "internalType": "address",
          "name": "owner",
          "type": "address"
        },
        {
          "internalType": "address",
          "name": "spender",
          "type": "address"
        }
      ],
      "name": "allowance",
      "outputs": [
        {
          "internalType": "uint256",
          "name": "",
          "type": "uint256"
        }
      ],
      "stateMutability": "view",
      "type": "function"
    },
    {
      "inputs": [
        {
          "internalType": "address",
          "name": "spender",
          "type": "address"
        },
        {
          "internalType": "uint256",
          "name": "amount",
          "type": "uint256"
        }
      ],
      "name": "approve",
      "outputs": [
        {
          "internalType": "bool",
          "name": "",
          "type": "bool"
        }
      ],
      "stateMutability": "nonpayable",
      "type": "function"
    },
    {
      "inputs": [
        {
          "internalType": "address",
          "name": "account",
          "type": "address"
        }
      ],
      "name": "balanceOf",
      "outputs": [
        {
          "internalType": "uint256",
          "name": "",
          "type": "uint256"
        }
      ],
      "stateMutability": "view",
      "type": "function"
    },
    {
      "inputs": [],
      "name": "decimals",
      "outputs": [
        {
          "internalType": "uint8",
          "name": "",
          "type": "uint8"
        }
      ],
      "stateMutability": "view",
      "type": "function"
    },
    {
      "inputs": [
        {
          "internalType": "address",
          "name": "spender",
          "type": "address"
        },
        {
          "internalType": "uint256",
          "name": "subtractedValue",
          "type": "uint256"
        }
      ],
      "name": "decreaseAllowance",
      "outputs": [
        {
          "internalType": "bool",
          "name": "",
          "type": "bool"
        }
      ],
      "stateMutability": "nonpayable",
      "type": "function"
    },
    {
      "inputs": [],
      "name": "disableMetaTxns",
      "outputs": [],
      "stateMutability": "nonpayable",
      "type": "function"
    },
    {
      "inputs": [],
      "name": "enableMetaTxns",
      "outputs": [],
      "stateMutability": "nonpayable",
      "type": "function"
    },
    {
      "inputs": [
        {
          "internalType": "bytes32",
          "name": "role",
          "type": "bytes32"
        }
      ],
      "name": "getRoleAdmin",
      "outputs": [
        {
          "internalType": "bytes32",
          "name": "",
          "type": "bytes32"
        }
      ],
      "stateMutability": "view",
      "type": "function"
    },
    {
      "inputs": [
        {
          "internalType": "bytes32",
          "name": "role",
          "type": "bytes32"
        },
        {
          "internalType": "address",
          "name": "account",
          "type": "address"
        }
      ],
      "name": "grantRole",
      "outputs": [],
      "stateMutability": "nonpayable",
      "type": "function"
    },
    {
      "inputs": [
        {
          "internalType": "bytes32",
          "name": "role",
          "type": "bytes32"
        },
        {
          "internalType": "address",
          "name": "account",
          "type": "address"
        }
      ],
      "name": "hasRole",
      "outputs": [
        {
          "internalType": "bool",
          "name": "",
          "type": "bool"
        }
      ],
      "stateMutability": "view",
      "type": "function"
    },
    {
      "inputs": [
        {
          "internalType": "address",
          "name": "spender",
          "type": "address"
        },
        {
          "internalType": "uint256",
          "name": "addedValue",
          "type": "uint256"
        }
      ],
      "name": "increaseAllowance",
      "outputs": [
        {
          "internalType": "bool",
          "name": "",
          "type": "bool"
        }
      ],
      "stateMutability": "nonpayable",
      "type": "function"
    },
    {
      "inputs": [
        {
          "internalType": "address",
          "name": "forwarder",
          "type": "address"
        }
      ],
      "name": "isTrustedForwarder",
      "outputs": [
        {
          "internalType": "bool",
          "name": "",
          "type": "bool"
        }
      ],
      "stateMutability": "view",
      "type": "function"
    },
    {
      "inputs": [],
      "name": "maxSupply",
      "outputs": [
        {
          "internalType": "uint256",
          "name": "",
          "type": "uint256"
        }
      ],
      "stateMutability": "view",
      "type": "function"
    },
    {
      "inputs": [],
      "name": "metaTxnsEnabled",
      "outputs": [
        {
          "internalType": "bool",
          "name": "",
          "type": "bool"
        }
      ],
      "stateMutability": "view",
      "type": "function"
    },
    {
      "inputs": [
        {
          "internalType": "address",
          "name": "to",
          "type": "address"
        },
        {
          "internalType": "uint256",
          "name": "amount",
          "type": "uint256"
        }
      ],
      "name": "mint",
      "outputs": [],
      "stateMutability": "nonpayable",
      "type": "function"
    },
    {
      "inputs": [],
      "name": "name",
      "outputs": [
        {
          "internalType": "string",
          "name": "",
          "type": "string"
        }
      ],
      "stateMutability": "view",
      "type": "function"
    },
    {
      "inputs": [
        {
          "internalType": "address",
          "name": "owner",
          "type": "address"
        }
      ],
      "name": "nonces",
      "outputs": [
        {
          "internalType": "uint256",
          "name": "",
          "type": "uint256"
        }
      ],
      "stateMutability": "view",
      "type": "function"
    },
    {
      "inputs": [],
      "name": "pause",
      "outputs": [],
      "stateMutability": "nonpayable",
      "type": "function"
    },
    {
      "inputs": [],
      "name": "paused",
      "outputs": [
        {
          "internalType": "bool",
          "name": "",
          "type": "bool"
        }
      ],
      "stateMutability": "view",
      "type": "function"
    },
    {
      "inputs": [
        {
          "internalType": "address",
          "name": "owner",
          "type": "address"
        },
        {
          "internalType": "address",
          "name": "spender",
          "type": "address"
        },
        {
          "internalType": "uint256",
          "name": "value",
          "type": "uint256"
        },
        {
          "internalType": "uint256",
          "name": "deadline",
          "type": "uint256"
        },
        {
          "internalType": "uint8",
          "name": "v",
          "type": "uint8"
        },
        {
          "internalType": "bytes32",
          "name": "r",
          "type": "bytes32"
        },
        {
          "internalType": "bytes32",
          "name": "s",
          "type": "bytes32"
        }
      ],
      "name": "permit",
      "outputs": [],
      "stateMutability": "nonpayable",
      "type": "function"
    },
    {
      "inputs": [
        {
          "internalType": "bytes32",
          "name": "role",
          "type": "bytes32"
        },
        {
          "internalType": "address",
          "name": "account",
          "type": "address"
        }
      ],
      "name": "renounceRole",
      "outputs": [],
      "stateMutability": "nonpayable",
      "type": "function"
    },
    {
      "inputs": [
        {
          "internalType": "contract IERC20",
          "name": "token",
          "type": "address"
        },
        {
          "internalType": "uint256",
          "name": "value",
          "type": "uint256"
        }
      ],
      "name": "rescueTokens",
      "outputs": [],
      "stateMutability": "nonpayable",
      "type": "function"
    },
    {
      "inputs": [
        {
          "internalType": "bytes32",
          "name": "role",
          "type": "bytes32"
        },
        {
          "internalType": "address",
          "name": "account",
          "type": "address"
        }
      ],
      "name": "revokeRole",
      "outputs": [],
      "stateMutability": "nonpayable",
      "type": "function"
    },
    {
      "inputs": [
        {
          "internalType": "bytes4",
          "name": "interfaceId",
          "type": "bytes4"
        }
      ],
      "name": "supportsInterface",
      "outputs": [
        {
          "internalType": "bool",
          "name": "",
          "type": "bool"
        }
      ],
      "stateMutability": "view",
      "type": "function"
    },
    {
      "inputs": [],
      "name": "symbol",
      "outputs": [
        {
          "internalType": "string",
          "name": "",
          "type": "string"
        }
      ],
      "stateMutability": "view",
      "type": "function"
    },
    {
      "inputs": [],
      "name": "totalSupply",
      "outputs": [
        {
          "internalType": "uint256",
          "name": "",
          "type": "uint256"
        }
      ],
      "stateMutability": "view",
      "type": "function"
    },
    {
      "inputs": [
        {
          "internalType": "address",
          "name": "recipient",
          "type": "address"
        },
        {
          "internalType": "uint256",
          "name": "amount",
          "type": "uint256"
        }
      ],
      "name": "transfer",
      "outputs": [
        {
          "internalType": "bool",
          "name": "",
          "type": "bool"
        }
      ],
      "stateMutability": "nonpayable",
      "type": "function"
    },
    {
      "inputs": [
        {
          "internalType": "address",
          "name": "sender",
          "type": "address"
        },
        {
          "internalType": "address",
          "name": "recipient",
          "type": "address"
        },
        {
          "internalType": "uint256",
          "name": "amount",
          "type": "uint256"
        }
      ],
      "name": "transferFrom",
      "outputs": [
        {
          "internalType": "bool",
          "name": "",
          "type": "bool"
        }
      ],
      "stateMutability": "nonpayable",
      "type": "function"
    },
    {
      "inputs": [],
      "name": "unpause",
      "outputs": [],
      "stateMutability": "nonpayable",
      "type": "function"
    }
  ],
  "transactionHash": "0x696b2aadb4b683445458d10d43db74903494ba592b35c16d27bfee27a8edaf0f",
  "args": [
    "0x262A73Ae4376a4D142A897c5E8148fd5F537EEb2"
  ],
  "solcInputHash": "3eb62949c7b0d89a97e973f3449bef2e",
  "bytecode": "0x6101406040527f6e71edae12b1b97f4d1f60370fef10105fa2faae0126114a169c64845d6126c96101205262000034620002b4565b6200004190600a62000697565b6200005190633b9aca0062000782565b6008556200005e620002b4565b6200006b90600a62000697565b6200007a90620f424062000782565b600955600a805460ff60a01b191690553480156200009757600080fd5b50604051620027a1380380620027a1833981016040819052620000ba9162000606565b6040518060400160405280600d81526020016c2b30b934b2ba3c902a37b5b2b760991b81525080604051806040016040528060018152602001603160f81b8152506040518060400160405280600d81526020016c2b30b934b2ba3c902a37b5b2b760991b815250604051806040016040528060038152602001622b20a960e91b81525081600390805190602001906200015592919062000560565b5080516200016b90600490602084019062000560565b5050825160208085019190912083519184019190912060c082905260e08190524660a0529091507f8b73c3c69bb8fe3d512ecc4cf759cc79239f7b179b0ffacaa9a75d522b39400f620001c0818484620002ba565b6080526101005250506006805460ff1916905550620001ee915060009050620001e862000304565b62000348565b6200021d7f65d7a28e3265b37a6474929f336521b332c1681b933f6cb9f3376673440d862a620001e862000304565b6200024c7f9f2df0fed2c77648de5860a4cc508cd0818c85b8b8a1ab4ceeef8d981c8956a6620001e862000304565b6200027b7fcf6f9f892731e14b8859835f2ff35575f447fb501f46243c4eb8bac19e31a050620001e862000304565b600a80546001600160a01b0319166001600160a01b038316179055620002ad620002a462000304565b60095462000358565b50620007f7565b60125b90565b6040805160208101859052908101839052606081018290524660808201523060a082015260009060c0016040516020818303038152906040528051906020012090505b9392505050565b600a546000906001600160a01b03163314156200032b575060131936013560601c620002b7565b620003406200045160201b62000e981760201c565b9050620002b7565b62000354828262000455565b5050565b6001600160a01b038216620003b45760405162461bcd60e51b815260206004820152601f60248201527f45524332303a206d696e7420746f20746865207a65726f20616464726573730060448201526064015b60405180910390fd5b620003c260008383620004fb565b8060026000828254620003d691906200062f565b90915550506001600160a01b03821660009081526020819052604081208054839290620004059084906200062f565b90915550506040518181526001600160a01b038316906000907fddf252ad1be2c89b69c2b068fc378daa952ba7f163c4a11628f55a4df523b3ef9060200160405180910390a362000354565b3390565b60008281526007602090815260408083206001600160a01b038516845290915290205460ff16620003545760008281526007602090815260408083206001600160a01b03851684529091529020805460ff19166001179055620004b762000304565b6001600160a01b0316816001600160a01b0316837f2f8788117e7eff1d82e926ec794901d17c78024a50270940304540a733656f0d60405160405180910390a45050565b60065460ff1615620005435760405162461bcd60e51b815260206004820152601060248201526f14185d5cd8589b194e881c185d5cd95960821b6044820152606401620003ab565b6200055b8383836200055b60201b620007ee1760201c565b505050565b8280546200056e90620007a4565b90600052602060002090601f016020900481019282620005925760008555620005dd565b82601f10620005ad57805160ff1916838001178555620005dd565b82800160010185558215620005dd579182015b82811115620005dd578251825591602001919060010190620005c0565b50620005eb929150620005ef565b5090565b5b80821115620005eb5760008155600101620005f0565b60006020828403121562000618578081fd5b81516001600160a01b0381168114620002fd578182fd5b60008219821115620006455762000645620007e1565b500190565b80825b60018086116200065e57506200068e565b818704821115620006735762000673620007e1565b808616156200068157918102915b9490941c9380026200064d565b94509492505050565b6000620002fd60001960ff851684600082620006b657506001620002fd565b81620006c557506000620002fd565b8160018114620006de5760028114620006e9576200071d565b6001915050620002fd565b60ff841115620006fd57620006fd620007e1565b6001841b915084821115620007165762000716620007e1565b50620002fd565b5060208310610133831016604e8410600b841016171562000755575081810a838111156200074f576200074f620007e1565b620002fd565b6200076484848460016200064a565b808604821115620007795762000779620007e1565b02949350505050565b60008160001904831182151516156200079f576200079f620007e1565b500290565b600281046001821680620007b957607f821691505b60208210811415620007db57634e487b7160e01b600052602260045260246000fd5b50919050565b634e487b7160e01b600052601160045260246000fd5b60805160a05160c05160e0516101005161012051611f5a620008476000396000610d6001526000611303015260006113520152600061132d015260006112b0015260006112d90152611f5a6000f3fe608060405234801561001057600080fd5b506004361061021c5760003560e01c80635c975abb11610125578063a457c2d7116100ad578063d53913931161007c578063d53913931461049f578063d547741f146104c6578063d5abeb01146104d9578063dd62ed3e146104e1578063e63ab1e91461051a5761021c565b8063a457c2d714610452578063a8c95dc014610465578063a9059cbb14610479578063d505accf1461048c5761021c565b806381566eaa116100f457806381566eaa146104005780638456cb591461042757806391d148541461042f57806395d89b4114610442578063a217fddf1461044a5761021c565b80635c975abb1461039257806370a082311461039d57806371372544146103c65780637ecebe00146103ed5761021c565b8063313ce567116101a85780633f4ba83a116101775780633f4ba83a1461033a57806340c10f1914610342578063572b6c05146103555780635737619814610377578063578bb42d1461038a5761021c565b8063313ce567146102fd5780633644e5151461030c57806336568abe1461031457806339509351146103275761021c565b806318160ddd116101ef57806318160ddd1461027b57806323b872dd1461028d578063248a9ca3146102a05780632f2ff15d146102c357806330d643b5146102d65761021c565b806301ffc9a71461022157806306fdde0314610249578063083836401461025e578063095ea7b314610268575b600080fd5b61023461022f366004611d7a565b610541565b60405190151581526020015b60405180910390f35b610251610578565b6040516102409190611e17565b61026661060b565b005b610234610276366004611cf3565b6106d8565b6002545b604051908152602001610240565b61023461029b366004611c3e565b6106f5565b61027f6102ae366004611d3e565b60009081526007602052604090206001015490565b6102666102d1366004611d56565b6107c6565b61027f7f7a05a596cb0ce7fdea8a1e1ec73be300bdb35097c944ce1897202f7a13122eb281565b60405160128152602001610240565b61027f6107f3565b610266610322366004611d56565b610802565b610234610335366004611cf3565b610890565b6102666108e4565b610266610350366004611cf3565b61091c565b610234610363366004611bea565b600a546001600160a01b0390811691161490565b610266610385366004611cf3565b6109cd565b610266610aeb565b60065460ff16610234565b61027f6103ab366004611bea565b6001600160a01b031660009081526020819052604090205490565b61027f7fcf6f9f892731e14b8859835f2ff35575f447fb501f46243c4eb8bac19e31a05081565b61027f6103fb366004611bea565b610bb4565b61027f7ffca79f3adba7490137e2d16caa9b169b63452adad6a6798627350f3fe4a4aaf081565b610266610bd2565b61023461043d366004611d56565b610c07565b610251610c32565b61027f600081565b610234610460366004611cf3565b610c41565b600a5461023490600160a01b900460ff1681565b610234610487366004611cf3565b610cf8565b61026661049a366004611c7e565b610d0c565b61027f7f9f2df0fed2c77648de5860a4cc508cd0818c85b8b8a1ab4ceeef8d981c8956a681565b6102666104d4366004611d56565b610e70565b60085461027f565b61027f6104ef366004611c06565b6001600160a01b03918216600090815260016020908152604080832093909416825291909152205490565b61027f7f65d7a28e3265b37a6474929f336521b332c1681b933f6cb9f3376673440d862a81565b60006001600160e01b03198216637965db0b60e01b148061057257506301ffc9a760e01b6001600160e01b03198316145b92915050565b60606003805461058790611ec4565b80601f01602080910402602001604051908101604052809291908181526020018280546105b390611ec4565b80156106005780601f106105d557610100808354040283529160200191610600565b820191906000526020600020905b8154815290600101906020018083116105e357829003601f168201915b505050505090505b90565b600061061e81610619610e9c565b610eca565b600a54600160a01b900460ff1661068b5760405162461bcd60e51b815260206004820152602660248201527f4d657461207472616e73616374696f6e732061726520616c72656164792064696044820152651cd8589b195960d21b60648201526084015b60405180910390fd5b600a805460ff60a01b191690556106a0610e9c565b6001600160a01b03167f096be170ccc67847e55535e7d8334b2afedd95805baedc160005addb9144745060405160405180910390a250565b60006106ec6106e5610e9c565b8484610f2e565b50600192915050565b600061070284848461104a565b6001600160a01b038416600090815260016020526040812081610723610e9c565b6001600160a01b03166001600160a01b03168152602001908152602001600020549050828110156107a75760405162461bcd60e51b815260206004820152602860248201527f45524332303a207472616e7366657220616d6f756e74206578636565647320616044820152676c6c6f77616e636560c01b6064820152608401610682565b6107bb856107b3610e9c565b858403610f2e565b506001949350505050565b6000828152600760205260409020600101546107e481610619610e9c565b6107ee8383611225565b505050565b60006107fd6112ac565b905090565b61080a610e9c565b6001600160a01b0316816001600160a01b0316146108825760405162461bcd60e51b815260206004820152602f60248201527f416363657373436f6e74726f6c3a2063616e206f6e6c792072656e6f756e636560448201526e103937b632b9903337b91039b2b63360891b6064820152608401610682565b61088c82826113a2565b5050565b60006106ec61089d610e9c565b8484600160006108ab610e9c565b6001600160a01b03908116825260208083019390935260409182016000908120918b16815292529020546108df9190611e4a565b610f2e565b7f65d7a28e3265b37a6474929f336521b332c1681b933f6cb9f3376673440d862a61091181610619610e9c565b610919611427565b50565b7f9f2df0fed2c77648de5860a4cc508cd0818c85b8b8a1ab4ceeef8d981c8956a661094981610619610e9c565b6008548261095660025490565b6109609190611e4a565b11156109c35760405162461bcd60e51b815260206004820152602c60248201527f45524332303a2063616e6e6f74206d696e74206d6f726520746f6b656e732c2060448201526b18d85c08195e18d95959195960a21b6064820152608401610682565b6107ee83836114c0565b7fcf6f9f892731e14b8859835f2ff35575f447fb501f46243c4eb8bac19e31a0506109fa81610619610e9c565b826001600160a01b031663a9059cbb610a11610e9c565b6040516001600160e01b031960e084901b1681526001600160a01b03909116600482015260248101859052604401602060405180830381600087803b158015610a5957600080fd5b505af1158015610a6d573d6000803e3d6000fd5b505050506040513d601f19601f82011682018060405250810190610a919190611d1e565b50826001600160a01b0316610aa4610e9c565b6001600160a01b03167f77023e19c7343ad491fd706c36335ca0e738340a91f29b1fd81e2673d44896c484604051610ade91815260200190565b60405180910390a3505050565b6000610af981610619610e9c565b600a54600160a01b900460ff1615610b615760405162461bcd60e51b815260206004820152602560248201527f4d657461207472616e73616374696f6e732061726520616c726561647920656e60448201526418589b195960da1b6064820152608401610682565b600a805460ff60a01b1916600160a01b179055610b7c610e9c565b6001600160a01b03167f92e4c08d47b71e8dc051232b8e475ec296489a67a4ba5cca88ff20fb6ac499e660405160405180910390a250565b6001600160a01b038116600090815260056020526040812054610572565b7f65d7a28e3265b37a6474929f336521b332c1681b933f6cb9f3376673440d862a610bff81610619610e9c565b6109196115ac565b60009182526007602090815260408084206001600160a01b0393909316845291905290205460ff1690565b60606004805461058790611ec4565b60008060016000610c50610e9c565b6001600160a01b0390811682526020808301939093526040918201600090812091881681529252902054905082811015610cda5760405162461bcd60e51b815260206004820152602560248201527f45524332303a2064656372656173656420616c6c6f77616e63652062656c6f77604482015264207a65726f60d81b6064820152608401610682565b610cee610ce5610e9c565b85858403610f2e565b5060019392505050565b60006106ec610d05610e9c565b848461104a565b83421115610d5c5760405162461bcd60e51b815260206004820152601d60248201527f45524332305065726d69743a206578706972656420646561646c696e650000006044820152606401610682565b60007f0000000000000000000000000000000000000000000000000000000000000000888888610d8b8c611628565b6040805160208101969096526001600160a01b0394851690860152929091166060840152608083015260a082015260c0810186905260e0016040516020818303038152906040528051906020012090506000610de682611650565b90506000610df68287878761169e565b9050896001600160a01b0316816001600160a01b031614610e595760405162461bcd60e51b815260206004820152601e60248201527f45524332305065726d69743a20696e76616c6964207369676e617475726500006044820152606401610682565b610e648a8a8a610f2e565b50505050505050505050565b600082815260076020526040902060010154610e8e81610619610e9c565b6107ee83836113a2565b3390565b600a546000906001600160a01b0316331415610ec1575060131936013560601c610608565b335b9050610608565b610ed48282610c07565b61088c57610eec816001600160a01b031660146116c6565b610ef78360206116c6565b604051602001610f08929190611da2565b60408051601f198184030181529082905262461bcd60e51b825261068291600401611e17565b6001600160a01b038316610f905760405162461bcd60e51b8152602060048201526024808201527f45524332303a20617070726f76652066726f6d20746865207a65726f206164646044820152637265737360e01b6064820152608401610682565b6001600160a01b038216610ff15760405162461bcd60e51b815260206004820152602260248201527f45524332303a20617070726f766520746f20746865207a65726f206164647265604482015261737360f01b6064820152608401610682565b6001600160a01b0383811660008181526001602090815260408083209487168084529482529182902085905590518481527f8c5be1e5ebec7d5bd14f71427d1e84f3dd0314c0f7b2291e5b200ac8c7c3b9259101610ade565b6001600160a01b0383166110ae5760405162461bcd60e51b815260206004820152602560248201527f45524332303a207472616e736665722066726f6d20746865207a65726f206164604482015264647265737360d81b6064820152608401610682565b6001600160a01b0382166111105760405162461bcd60e51b815260206004820152602360248201527f45524332303a207472616e7366657220746f20746865207a65726f206164647260448201526265737360e81b6064820152608401610682565b61111b8383836118af565b6001600160a01b038316600090815260208190526040902054818110156111935760405162461bcd60e51b815260206004820152602660248201527f45524332303a207472616e7366657220616d6f756e7420657863656564732062604482015265616c616e636560d01b6064820152608401610682565b6001600160a01b038085166000908152602081905260408082208585039055918516815290812080548492906111ca908490611e4a565b92505081905550826001600160a01b0316846001600160a01b03167fddf252ad1be2c89b69c2b068fc378daa952ba7f163c4a11628f55a4df523b3ef8460405161121691815260200190565b60405180910390a35b50505050565b61122f8282610c07565b61088c5760008281526007602090815260408083206001600160a01b03851684529091529020805460ff19166001179055611268610e9c565b6001600160a01b0316816001600160a01b0316837f2f8788117e7eff1d82e926ec794901d17c78024a50270940304540a733656f0d60405160405180910390a45050565b60007f00000000000000000000000000000000000000000000000000000000000000004614156112fd57507f0000000000000000000000000000000000000000000000000000000000000000610608565b604080517f00000000000000000000000000000000000000000000000000000000000000006020808301919091527f0000000000000000000000000000000000000000000000000000000000000000828401527f000000000000000000000000000000000000000000000000000000000000000060608301524660808301523060a0808401919091528351808403909101815260c09092019092528051910120610ec3565b6113ac8282610c07565b1561088c5760008281526007602090815260408083206001600160a01b03851684529091529020805460ff191690556113e3610e9c565b6001600160a01b0316816001600160a01b0316837ff6391f5c32d9c69d2a47ea670b442974b53935d1edc7fd64eb21e047a839171b60405160405180910390a45050565b60065460ff166114705760405162461bcd60e51b815260206004820152601460248201527314185d5cd8589b194e881b9bdd081c185d5cd95960621b6044820152606401610682565b6006805460ff191690557f5db9ee0a495bf2e6ff9c91a7834c1ba4fdd244a5e8aa4e537bd38aeae4b073aa6114a3610e9c565b6040516001600160a01b03909116815260200160405180910390a1565b6001600160a01b0382166115165760405162461bcd60e51b815260206004820152601f60248201527f45524332303a206d696e7420746f20746865207a65726f2061646472657373006044820152606401610682565b611522600083836118af565b80600260008282546115349190611e4a565b90915550506001600160a01b03821660009081526020819052604081208054839290611561908490611e4a565b90915550506040518181526001600160a01b038316906000907fddf252ad1be2c89b69c2b068fc378daa952ba7f163c4a11628f55a4df523b3ef9060200160405180910390a361088c565b60065460ff16156115f25760405162461bcd60e51b815260206004820152601060248201526f14185d5cd8589b194e881c185d5cd95960821b6044820152606401610682565b6006805460ff191660011790557f62e78cea01bee320cd4e420270b5ea74000d11b0c9f74754ebdbfc544b05a2586114a3610e9c565b6001600160a01b03811660009081526005602052604090208054600181018255905b50919050565b600061057261165d6112ac565b8360405161190160f01b6020820152602281018390526042810182905260009060620160405160208183030381529060405280519060200120905092915050565b60008060006116af878787876118fa565b915091506116bc816119e7565b5095945050505050565b606060006116d5836002611e62565b6116e0906002611e4a565b67ffffffffffffffff81111561170657634e487b7160e01b600052604160045260246000fd5b6040519080825280601f01601f191660200182016040528015611730576020820181803683370190505b509050600360fc1b8160008151811061175957634e487b7160e01b600052603260045260246000fd5b60200101906001600160f81b031916908160001a905350600f60fb1b8160018151811061179657634e487b7160e01b600052603260045260246000fd5b60200101906001600160f81b031916908160001a90535060006117ba846002611e62565b6117c5906001611e4a565b90505b6001811115611859576f181899199a1a9b1b9c1cb0b131b232b360811b85600f166010811061180757634e487b7160e01b600052603260045260246000fd5b1a60f81b82828151811061182b57634e487b7160e01b600052603260045260246000fd5b60200101906001600160f81b031916908160001a90535060049490941c9361185281611ead565b90506117c8565b5083156118a85760405162461bcd60e51b815260206004820181905260248201527f537472696e67733a20686578206c656e67746820696e73756666696369656e746044820152606401610682565b9392505050565b60065460ff16156118f55760405162461bcd60e51b815260206004820152601060248201526f14185d5cd8589b194e881c185d5cd95960821b6044820152606401610682565b6107ee565b6000807f7fffffffffffffffffffffffffffffff5d576e7357a4501ddfe92f46681b20a083111561193157506000905060036119de565b8460ff16601b1415801561194957508460ff16601c14155b1561195a57506000905060046119de565b6040805160008082526020820180845289905260ff881692820192909252606081018690526080810185905260019060a0016020604051602081039080840390855afa1580156119ae573d6000803e3d6000fd5b5050604051601f1901519150506001600160a01b0381166119d7576000600192509250506119de565b9150600090505b94509492505050565b6000816004811115611a0957634e487b7160e01b600052602160045260246000fd5b1415611a1457610919565b6001816004811115611a3657634e487b7160e01b600052602160045260246000fd5b1415611a845760405162461bcd60e51b815260206004820152601860248201527f45434453413a20696e76616c6964207369676e617475726500000000000000006044820152606401610682565b6002816004811115611aa657634e487b7160e01b600052602160045260246000fd5b1415611af45760405162461bcd60e51b815260206004820152601f60248201527f45434453413a20696e76616c6964207369676e6174757265206c656e677468006044820152606401610682565b6003816004811115611b1657634e487b7160e01b600052602160045260246000fd5b1415611b6f5760405162461bcd60e51b815260206004820152602260248201527f45434453413a20696e76616c6964207369676e6174757265202773272076616c604482015261756560f01b6064820152608401610682565b6004816004811115611b9157634e487b7160e01b600052602160045260246000fd5b14156109195760405162461bcd60e51b815260206004820152602260248201527f45434453413a20696e76616c6964207369676e6174757265202776272076616c604482015261756560f01b6064820152608401610682565b600060208284031215611bfb578081fd5b81356118a881611f0f565b60008060408385031215611c18578081fd5b8235611c2381611f0f565b91506020830135611c3381611f0f565b809150509250929050565b600080600060608486031215611c52578081fd5b8335611c5d81611f0f565b92506020840135611c6d81611f0f565b929592945050506040919091013590565b600080600080600080600060e0888a031215611c98578283fd5b8735611ca381611f0f565b96506020880135611cb381611f0f565b95506040880135945060608801359350608088013560ff81168114611cd6578384fd5b9699959850939692959460a0840135945060c09093013592915050565b60008060408385031215611d05578182fd5b8235611d1081611f0f565b946020939093013593505050565b600060208284031215611d2f578081fd5b815180151581146118a8578182fd5b600060208284031215611d4f578081fd5b5035919050565b60008060408385031215611d68578182fd5b823591506020830135611c3381611f0f565b600060208284031215611d8b578081fd5b81356001600160e01b0319811681146118a8578182fd5b60007f416363657373436f6e74726f6c3a206163636f756e742000000000000000000082528351611dda816017850160208801611e81565b7001034b99036b4b9b9b4b733903937b6329607d1b6017918401918201528351611e0b816028840160208801611e81565b01602801949350505050565b6000602082528251806020840152611e36816040850160208701611e81565b601f01601f19169190910160400192915050565b60008219821115611e5d57611e5d611ef9565b500190565b6000816000190483118215151615611e7c57611e7c611ef9565b500290565b60005b83811015611e9c578181015183820152602001611e84565b8381111561121f5750506000910152565b600081611ebc57611ebc611ef9565b506000190190565b600281046001821680611ed857607f821691505b6020821081141561164a57634e487b7160e01b600052602260045260246000fd5b634e487b7160e01b600052601160045260246000fd5b6001600160a01b038116811461091957600080fdfea2646970667358221220a66d45a30e376daf0e2dad05f2b8371e357fde10b0c4f67eb110213800b17c3c64736f6c63430008020033",
  "devdoc": {
    "kind": "dev",
    "methods": {
      "DOMAIN_SEPARATOR()": {
        "details": "See {IERC20Permit-DOMAIN_SEPARATOR}."
      },
      "allowance(address,address)": {
        "details": "See {IERC20-allowance}."
      },
      "approve(address,uint256)": {
        "details": "See {IERC20-approve}. Requirements: - `spender` cannot be the zero address."
      },
      "balanceOf(address)": {
        "details": "See {IERC20-balanceOf}."
      },
      "decimals()": {
        "details": "Returns the number of decimals used to get its user representation. For example, if `decimals` equals `2`, a balance of `505` tokens should be displayed to a user as `5.05` (`505 / 10 ** 2`). Tokens usually opt for a value of 18, imitating the relationship between Ether and Wei. This is the value {ERC20} uses, unless this function is overridden; NOTE: This information is only used for _display_ purposes: it in no way affects any of the arithmetic of the contract, including {IERC20-balanceOf} and {IERC20-transfer}."
      },
      "decreaseAllowance(address,uint256)": {
        "details": "Atomically decreases the allowance granted to `spender` by the caller. This is an alternative to {approve} that can be used as a mitigation for problems described in {IERC20-approve}. Emits an {Approval} event indicating the updated allowance. Requirements: - `spender` cannot be the zero address. - `spender` must have allowance for the caller of at least `subtractedValue`."
      },
      "getRoleAdmin(bytes32)": {
        "details": "Returns the admin role that controls `role`. See {grantRole} and {revokeRole}. To change a role's admin, use {_setRoleAdmin}."
      },
      "grantRole(bytes32,address)": {
        "details": "Grants `role` to `account`. If `account` had not been already granted `role`, emits a {RoleGranted} event. Requirements: - the caller must have ``role``'s admin role."
      },
      "hasRole(bytes32,address)": {
        "details": "Returns `true` if `account` has been granted `role`."
      },
      "increaseAllowance(address,uint256)": {
        "details": "Atomically increases the allowance granted to `spender` by the caller. This is an alternative to {approve} that can be used as a mitigation for problems described in {IERC20-approve}. Emits an {Approval} event indicating the updated allowance. Requirements: - `spender` cannot be the zero address."
      },
      "maxSupply()": {
        "details": "Returns the maximum amount of tokens that can be minted."
      },
      "name()": {
        "details": "Returns the name of the token."
      },
      "nonces(address)": {
        "details": "See {IERC20Permit-nonces}."
      },
      "paused()": {
        "details": "Returns true if the contract is paused, and false otherwise."
      },
      "permit(address,address,uint256,uint256,uint8,bytes32,bytes32)": {
        "details": "See {IERC20Permit-permit}."
      },
      "renounceRole(bytes32,address)": {
        "details": "Revokes `role` from the calling account. Roles are often managed via {grantRole} and {revokeRole}: this function's purpose is to provide a mechanism for accounts to lose their privileges if they are compromised (such as when a trusted device is misplaced). If the calling account had been granted `role`, emits a {RoleRevoked} event. Requirements: - the caller must be `account`."
      },
      "revokeRole(bytes32,address)": {
        "details": "Revokes `role` from `account`. If `account` had been granted `role`, emits a {RoleRevoked} event. Requirements: - the caller must have ``role``'s admin role."
      },
      "supportsInterface(bytes4)": {
        "details": "See {IERC165-supportsInterface}."
      },
      "symbol()": {
        "details": "Returns the symbol of the token, usually a shorter version of the name."
      },
      "totalSupply()": {
        "details": "See {IERC20-totalSupply}."
      },
      "transfer(address,uint256)": {
        "details": "See {IERC20-transfer}. Requirements: - `recipient` cannot be the zero address. - the caller must have a balance of at least `amount`."
      },
      "transferFrom(address,address,uint256)": {
        "details": "See {IERC20-transferFrom}. Emits an {Approval} event indicating the updated allowance. This is not required by the EIP. See the note at the beginning of {ERC20}. Requirements: - `sender` and `recipient` cannot be the zero address. - `sender` must have a balance of at least `amount`. - the caller must have allowance for ``sender``'s tokens of at least `amount`."
      }
    },
    "version": 1
  },
  "userdoc": {
    "kind": "user",
    "methods": {},
    "version": 1
  },
  "storageLayout": {
    "storage": [
      {
        "astId": 708,
        "contract": "contracts/variety/VarietyToken.sol:VarietyToken",
        "label": "_balances",
        "offset": 0,
        "slot": "0",
        "type": "t_mapping(t_address,t_uint256)"
      },
      {
        "astId": 714,
        "contract": "contracts/variety/VarietyToken.sol:VarietyToken",
        "label": "_allowances",
        "offset": 0,
        "slot": "1",
        "type": "t_mapping(t_address,t_mapping(t_address,t_uint256))"
      },
      {
        "astId": 716,
        "contract": "contracts/variety/VarietyToken.sol:VarietyToken",
        "label": "_totalSupply",
        "offset": 0,
        "slot": "2",
        "type": "t_uint256"
      },
      {
        "astId": 718,
        "contract": "contracts/variety/VarietyToken.sol:VarietyToken",
        "label": "_name",
        "offset": 0,
        "slot": "3",
        "type": "t_string_storage"
      },
      {
        "astId": 720,
        "contract": "contracts/variety/VarietyToken.sol:VarietyToken",
        "label": "_symbol",
        "offset": 0,
        "slot": "4",
        "type": "t_string_storage"
      },
      {
        "astId": 1364,
        "contract": "contracts/variety/VarietyToken.sol:VarietyToken",
        "label": "_nonces",
        "offset": 0,
        "slot": "5",
        "type": "t_mapping(t_address,t_struct(Counter)2095_storage)"
      },
      {
        "astId": 578,
        "contract": "contracts/variety/VarietyToken.sol:VarietyToken",
        "label": "_paused",
        "offset": 0,
        "slot": "6",
        "type": "t_bool"
      },
      {
        "astId": 24,
        "contract": "contracts/variety/VarietyToken.sol:VarietyToken",
        "label": "_roles",
        "offset": 0,
        "slot": "7",
        "type": "t_mapping(t_bytes32,t_struct(RoleData)19_storage)"
      },
      {
        "astId": 8030,
        "contract": "contracts/variety/VarietyToken.sol:VarietyToken",
        "label": "_maxSupply",
        "offset": 0,
        "slot": "8",
        "type": "t_uint256"
      },
      {
        "astId": 8038,
        "contract": "contracts/variety/VarietyToken.sol:VarietyToken",
        "label": "_initialSupply",
        "offset": 0,
        "slot": "9",
        "type": "t_uint256"
      },
      {
        "astId": 8040,
        "contract": "contracts/variety/VarietyToken.sol:VarietyToken",
        "label": "_trustedForwarder",
        "offset": 0,
        "slot": "10",
        "type": "t_address"
      },
      {
        "astId": 8043,
        "contract": "contracts/variety/VarietyToken.sol:VarietyToken",
        "label": "metaTxnsEnabled",
        "offset": 20,
        "slot": "10",
        "type": "t_bool"
      }
    ],
    "types": {
      "t_address": {
        "encoding": "inplace",
        "label": "address",
        "numberOfBytes": "20"
      },
      "t_bool": {
        "encoding": "inplace",
        "label": "bool",
        "numberOfBytes": "1"
      },
      "t_bytes32": {
        "encoding": "inplace",
        "label": "bytes32",
        "numberOfBytes": "32"
      },
      "t_mapping(t_address,t_bool)": {
        "encoding": "mapping",
        "key": "t_address",
        "label": "mapping(address => bool)",
        "numberOfBytes": "32",
        "value": "t_bool"
      },
      "t_mapping(t_address,t_mapping(t_address,t_uint256))": {
        "encoding": "mapping",
        "key": "t_address",
        "label": "mapping(address => mapping(address => uint256))",
        "numberOfBytes": "32",
        "value": "t_mapping(t_address,t_uint256)"
      },
      "t_mapping(t_address,t_struct(Counter)2095_storage)": {
        "encoding": "mapping",
        "key": "t_address",
        "label": "mapping(address => struct Counters.Counter)",
        "numberOfBytes": "32",
        "value": "t_struct(Counter)2095_storage"
      },
      "t_mapping(t_address,t_uint256)": {
        "encoding": "mapping",
        "key": "t_address",
        "label": "mapping(address => uint256)",
        "numberOfBytes": "32",
        "value": "t_uint256"
      },
      "t_mapping(t_bytes32,t_struct(RoleData)19_storage)": {
        "encoding": "mapping",
        "key": "t_bytes32",
        "label": "mapping(bytes32 => struct AccessControl.RoleData)",
        "numberOfBytes": "32",
        "value": "t_struct(RoleData)19_storage"
      },
      "t_string_storage": {
        "encoding": "bytes",
        "label": "string",
        "numberOfBytes": "32"
      },
      "t_struct(Counter)2095_storage": {
        "encoding": "inplace",
        "label": "struct Counters.Counter",
        "members": [
          {
            "astId": 2094,
            "contract": "contracts/variety/VarietyToken.sol:VarietyToken",
            "label": "_value",
            "offset": 0,
            "slot": "0",
            "type": "t_uint256"
          }
        ],
        "numberOfBytes": "32"
      },
      "t_struct(RoleData)19_storage": {
        "encoding": "inplace",
        "label": "struct AccessControl.RoleData",
        "members": [
          {
            "astId": 16,
            "contract": "contracts/variety/VarietyToken.sol:VarietyToken",
            "label": "members",
            "offset": 0,
            "slot": "0",
            "type": "t_mapping(t_address,t_bool)"
          },
          {
            "astId": 18,
            "contract": "contracts/variety/VarietyToken.sol:VarietyToken",
            "label": "adminRole",
            "offset": 0,
            "slot": "1",
            "type": "t_bytes32"
          }
        ],
        "numberOfBytes": "64"
      },
      "t_uint256": {
        "encoding": "inplace",
        "label": "uint256",
        "numberOfBytes": "32"
      }
    }
  }
}