{
  "address": "0xB9946BB88497377dff65fDD687E5467ee2a922a0",
  "abi": [
    {
      "inputs": [
        {
          "internalType": "address",
          "name": "_feeToSetter",
          "type": "address"
        }
      ],
      "stateMutability": "nonpayable",
      "type": "constructor"
    },
    {
      "anonymous": false,
      "inputs": [
        {
          "indexed": true,
          "internalType": "address",
          "name": "token0",
          "type": "address"
        },
        {
          "indexed": true,
          "internalType": "address",
          "name": "token1",
          "type": "address"
        },
        {
          "indexed": false,
          "internalType": "address",
          "name": "pair",
          "type": "address"
        },
        {
          "indexed": false,
          "internalType": "uint256",
          "name": "",
          "type": "uint256"
        }
      ],
      "name": "PairCreated",
      "type": "event"
    },
    {
      "inputs": [],
      "name": "INIT_CODE_PAIR_HASH",
      "outputs": [
        {
          "internalType": "bytes32",
          "name": "",
          "type": "bytes32"
        }
      ],
      "stateMutability": "view",
      "type": "function"
    },
    {
      "inputs": [
        {
          "internalType": "uint256",
          "name": "",
          "type": "uint256"
        }
      ],
      "name": "allPairs",
      "outputs": [
        {
          "internalType": "address",
          "name": "",
          "type": "address"
        }
      ],
      "stateMutability": "view",
      "type": "function"
    },
    {
      "inputs": [],
      "name": "allPairsLength",
      "outputs": [
        {
          "internalType": "uint256",
          "name": "",
          "type": "uint256"
        }
      ],
      "stateMutability": "view",
      "type": "function"
    },
    {
      "inputs": [],
      "name": "auro",
      "outputs": [
        {
          "internalType": "address",
          "name": "",
          "type": "address"
        }
      ],
      "stateMutability": "view",
      "type": "function"
    },
    {
      "inputs": [
        {
          "internalType": "address",
          "name": "tokenA",
          "type": "address"
        },
        {
          "internalType": "address",
          "name": "tokenB",
          "type": "address"
        }
      ],
      "name": "createPair",
      "outputs": [
        {
          "internalType": "address",
          "name": "pair",
          "type": "address"
        }
      ],
      "stateMutability": "nonpayable",
      "type": "function"
    },
    {
      "inputs": [
        {
          "internalType": "address",
          "name": "pairAddress",
          "type": "address"
        }
      ],
      "name": "disableMetaTxnsPair",
      "outputs": [],
      "stateMutability": "nonpayable",
      "type": "function"
    },
    {
      "inputs": [
        {
          "internalType": "address",
          "name": "pairAddress",
          "type": "address"
        }
      ],
      "name": "enableMetaTxnsPair",
      "outputs": [],
      "stateMutability": "nonpayable",
      "type": "function"
    },
    {
      "inputs": [],
      "name": "feeTo",
      "outputs": [
        {
          "internalType": "address",
          "name": "",
          "type": "address"
        }
      ],
      "stateMutability": "view",
      "type": "function"
    },
    {
      "inputs": [],
      "name": "feeToSetter",
      "outputs": [
        {
          "internalType": "address",
          "name": "",
          "type": "address"
        }
      ],
      "stateMutability": "view",
      "type": "function"
    },
    {
      "inputs": [
        {
          "internalType": "address",
          "name": "",
          "type": "address"
        },
        {
          "internalType": "address",
          "name": "",
          "type": "address"
        }
      ],
      "name": "getPair",
      "outputs": [
        {
          "internalType": "address",
          "name": "",
          "type": "address"
        }
      ],
      "stateMutability": "view",
      "type": "function"
    },
    {
      "inputs": [],
      "name": "migrator",
      "outputs": [
        {
          "internalType": "address",
          "name": "",
          "type": "address"
        }
      ],
      "stateMutability": "view",
      "type": "function"
    },
    {
      "inputs": [
        {
          "internalType": "address",
          "name": "_auro",
          "type": "address"
        }
      ],
      "name": "setAuroAddress",
      "outputs": [],
      "stateMutability": "nonpayable",
      "type": "function"
    },
    {
      "inputs": [
        {
          "internalType": "address",
          "name": "_feeTo",
          "type": "address"
        }
      ],
      "name": "setFeeTo",
      "outputs": [],
      "stateMutability": "nonpayable",
      "type": "function"
    },
    {
      "inputs": [
        {
          "internalType": "address",
          "name": "_feeToSetter",
          "type": "address"
        }
      ],
      "name": "setFeeToSetter",
      "outputs": [],
      "stateMutability": "nonpayable",
      "type": "function"
    },
    {
      "inputs": [
        {
          "internalType": "address",
          "name": "_migrator",
          "type": "address"
        }
      ],
      "name": "setMigrator",
      "outputs": [],
      "stateMutability": "nonpayable",
      "type": "function"
    }
  ],
  "transactionHash": "0x68a102944bc59b323fa261de650a91772161f5e7d0bc9f866beba38f6438a4b9",
  "args": [
    "0xe033CABdf7765e4Cb3F2b12364ACa9F7c16e36e9"
  ],
  "solcInputHash": "33c2d6496db62a62473d47661082a574",
  "bytecode": "0x608060405234801561001057600080fd5b506040516136bf3803806136bf8339818101604052602081101561003357600080fd5b5051600180546001600160a01b0319166001600160a01b0390921691909117905561365c806100636000396000f3fe608060405234801561001057600080fd5b50600436106100f55760003560e01c80635e07d17b11610097578063b0cb33fe11610066578063b0cb33fe1461020f578063c9c6539614610235578063e6a4390514610263578063f46901ed14610291576100f5565b80635e07d17b146101955780636bd7c172146101bb5780637cd07e47146101e1578063a2e74af6146101e9576100f5565b806321dd70e6116100d357806321dd70e61461014357806323cf31181461014b578063574f2ba3146101735780635855a25a1461018d576100f5565b8063017e7e58146100fa578063094b74151461011e5780631e3dd18b14610126575b600080fd5b6101026102b7565b604080516001600160a01b039092168252519081900360200190f35b6101026102c6565b6101026004803603602081101561013c57600080fd5b50356102d5565b6101026102fc565b6101716004803603602081101561016157600080fd5b50356001600160a01b031661030b565b005b61017b610381565b60408051918252519081900360200190f35b61017b610387565b610171600480360360208110156101ab57600080fd5b50356001600160a01b031661041a565b610171600480360360208110156101d157600080fd5b50356001600160a01b03166105c1565b610102610692565b610171600480360360208110156101ff57600080fd5b50356001600160a01b03166106a1565b6101716004803603602081101561022557600080fd5b50356001600160a01b0316610717565b6101026004803603604081101561024b57600080fd5b506001600160a01b03813581169160200135166108a1565b6101026004803603604081101561027957600080fd5b506001600160a01b0381358116916020013516610bc2565b610171600480360360208110156102a757600080fd5b50356001600160a01b0316610be8565b6000546001600160a01b031681565b6001546001600160a01b031681565b600581815481106102e257fe5b6000918252602090912001546001600160a01b0316905081565b6003546001600160a01b031681565b6001546001600160a01b0316331461035f576040805162461bcd60e51b81526020600482015260126024820152712b30b934b2ba3c9d102327a92124a22222a760711b604482015290519081900360640190fd5b600280546001600160a01b0319166001600160a01b0392909216919091179055565b60055490565b60405161039660208201610c5e565b6020820181038252601f19601f820116604052506040516020018082805190602001908083835b602083106103dc5780518252601f1990920191602091820191016103bd565b6001836020036101000a0380198251168184511680821785525050505050509050019150506040516020818303038152906040528051906020012081565b6001546001600160a01b0316331461046e576040805162461bcd60e51b81526020600482015260126024820152712b30b934b2ba3c9d102327a92124a22222a760711b604482015290519081900360640190fd5b6001600160a01b0381166104c4576040805162461bcd60e51b8152602060048201526018602482015277566172696574793a20504149525f4e4f545f45584953545360401b604482015290519081900360640190fd5b6000819050806001600160a01b031663a8c95dc06040518163ffffffff1660e01b815260040160206040518083038186803b15801561050257600080fd5b505afa158015610516573d6000803e3d6000fd5b505050506040513d602081101561052c57600080fd5b50511561056a5760405162461bcd60e51b81526004018080602001828103825260228152602001806136056022913960400191505060405180910390fd5b806001600160a01b031663578bb42d6040518163ffffffff1660e01b8152600401600060405180830381600087803b1580156105a557600080fd5b505af11580156105b9573d6000803e3d6000fd5b505050505050565b6001546001600160a01b03163314610615576040805162461bcd60e51b81526020600482015260126024820152712b30b934b2ba3c9d102327a92124a22222a760711b604482015290519081900360640190fd5b6001600160a01b038116610670576040805162461bcd60e51b815260206004820152601860248201527f566172696574793a20494e56414c49445f414444524553530000000000000000604482015290519081900360640190fd5b600380546001600160a01b0319166001600160a01b0392909216919091179055565b6002546001600160a01b031681565b6001546001600160a01b031633146106f5576040805162461bcd60e51b81526020600482015260126024820152712b30b934b2ba3c9d102327a92124a22222a760711b604482015290519081900360640190fd5b600180546001600160a01b0319166001600160a01b0392909216919091179055565b6001546001600160a01b0316331461076b576040805162461bcd60e51b81526020600482015260126024820152712b30b934b2ba3c9d102327a92124a22222a760711b604482015290519081900360640190fd5b6001600160a01b0381166107c1576040805162461bcd60e51b8152602060048201526018602482015277566172696574793a20504149525f4e4f545f45584953545360401b604482015290519081900360640190fd5b6000819050806001600160a01b031663a8c95dc06040518163ffffffff1660e01b815260040160206040518083038186803b1580156107ff57600080fd5b505afa158015610813573d6000803e3d6000fd5b505050506040513d602081101561082957600080fd5b50516108665760405162461bcd60e51b81526004018080602001828103825260238152602001806135e26023913960400191505060405180910390fd5b806001600160a01b031663083836406040518163ffffffff1660e01b8152600401600060405180830381600087803b1580156105a557600080fd5b6000816001600160a01b0316836001600160a01b0316141561090a576040805162461bcd60e51b815260206004820152601c60248201527f566172696574793a204944454e544943414c5f41444452455353455300000000604482015290519081900360640190fd5b600080836001600160a01b0316856001600160a01b03161061092d578385610930565b84845b90925090506001600160a01b038216610988576040805162461bcd60e51b8152602060048201526015602482015274566172696574793a205a45524f5f4144445245535360581b604482015290519081900360640190fd5b6001600160a01b038281166000908152600460209081526040808320858516845290915290205416156109f9576040805162461bcd60e51b8152602060048201526014602482015273566172696574793a20504149525f45584953545360601b604482015290519081900360640190fd5b606060405180602001610a0b90610c5e565b6020820181038252601f19601f8201166040525090506000838360405160200180836001600160a01b031660601b8152601401826001600160a01b031660601b815260140192505050604051602081830303815290604052805190602001209050808251602084016000f59450846001600160a01b031663485cc95585856040518363ffffffff1660e01b815260040180836001600160a01b03168152602001826001600160a01b0316815260200192505050600060405180830381600087803b158015610ad857600080fd5b505af1158015610aec573d6000803e3d6000fd5b505050506001600160a01b0384811660008181526004602081815260408084208987168086529083528185208054978d166001600160a01b031998891681179091559383528185208686528352818520805488168517905560058054600181018255958190527f036b6384b5eca791c62761152d0c79bb0604c104a5fb6f4eb0703f3154bb3db090950180549097168417909655925483519283529082015281517f0d3648bd0f6ba80134a33ba9275ac585d9d315f0ad8355cddefde31afa28d0e9929181900390910190a35050505092915050565b60046020908152600092835260408084209091529082529020546001600160a01b031681565b6001546001600160a01b03163314610c3c576040805162461bcd60e51b81526020600482015260126024820152712b30b934b2ba3c9d102327a92124a22222a760711b604482015290519081900360640190fd5b600080546001600160a01b0319166001600160a01b0392909216919091179055565b61297680610c6c8339019056fe60806040526005805460ff60a01b191690556001600d5534801561002257600080fd5b50604080518082018252601081526f2b30b934b2ba3c902628102a37b5b2b760811b6020918201528151808301835260018152603160f81b9082015281517f8b73c3c69bb8fe3d512ecc4cf759cc79239f7b179b0ffacaa9a75d522b39400f818301527f8c08c8bbe8e8cc487c1380e1a16db67761b0d327ec39f7c678270c8b988f3cdf818401527fc89efdaa54c0f20c7adf612882df0950f5a951637e0307cdcb4c672f298b8bc660608201524660808201523060a0808301919091528351808303909101815260c09091019092528151910120600355600680546001600160a01b0319163317905561285b8061011b6000396000f3fe608060405234801561001057600080fd5b50600436106101e55760003560e01c80635a3d54931161010f578063a9059cbb116100a2578063d21220a711610071578063d21220a7146105ae578063d505accf146105b6578063dd62ed3e14610607578063fff6cae914610635576101e5565b8063a9059cbb1461054c578063ba9a7a5614610578578063bc25cf7714610580578063c45a0155146105a6576101e5565b80637ecebe00116100de5780637ecebe00146104d757806389afcb44146104fd57806395d89b411461053c578063a8c95dc014610544576101e5565b80635a3d54931461047b5780636a6278421461048357806370a08231146104a95780637464fc3d146104cf576101e5565b806323b872dd11610187578063485cc95511610156578063485cc95514610417578063572b6c0514610445578063578bb42d1461046b5780635909c0d514610473576101e5565b806323b872dd146103b357806330adf81f146103e9578063313ce567146103f15780633644e5151461040f576101e5565b80630902f1ac116101c35780630902f1ac146102fd578063095ea7b3146103355780630dfe16811461037557806318160ddd14610399576101e5565b8063022c0d9f146101ea57806306fdde031461027857806308383640146102f5575b600080fd5b6102766004803603608081101561020057600080fd5b8135916020810135916001600160a01b03604083013516919081019060808101606082013564010000000081111561023757600080fd5b82018360208201111561024957600080fd5b8035906020019184600183028401116401000000008311171561026b57600080fd5b50909250905061063d565b005b610280610c63565b6040805160208082528351818301528351919283929083019185019080838360005b838110156102ba5781810151838201526020016102a2565b50505050905090810190601f1680156102e75780820380516001836020036101000a031916815260200191505b509250505060405180910390f35b610276610c8f565b610305610d87565b604080516001600160701b03948516815292909316602083015263ffffffff168183015290519081900360600190f35b6103616004803603604081101561034b57600080fd5b506001600160a01b038135169060200135610db1565b604080519115158252519081900360200190f35b61037d610dcf565b604080516001600160a01b039092168252519081900360200190f35b6103a1610dde565b60408051918252519081900360200190f35b610361600480360360608110156103c957600080fd5b506001600160a01b03813581169160208101359091169060400135610de4565b6103a1610ec7565b6103f9610eeb565b6040805160ff9092168252519081900360200190f35b6103a1610ef0565b6102766004803603604081101561042d57600080fd5b506001600160a01b0381358116916020013516610ef6565b6103616004803603602081101561045b57600080fd5b50356001600160a01b0316610f78565b610276610fa9565b6103a16110a8565b6103a16110ae565b6103a16004803603602081101561049957600080fd5b50356001600160a01b03166110b4565b6103a1600480360360208110156104bf57600080fd5b50356001600160a01b0316611554565b6103a1611566565b6103a1600480360360208110156104ed57600080fd5b50356001600160a01b031661156c565b6105236004803603602081101561051357600080fd5b50356001600160a01b031661157e565b6040805192835260208301919091528051918290030190f35b610280611922565b610361611941565b6103616004803603604081101561056257600080fd5b506001600160a01b038135169060200135611951565b6103a1611965565b6102766004803603602081101561059657600080fd5b50356001600160a01b031661196b565b61037d611adb565b61037d611aea565b610276600480360360e08110156105cc57600080fd5b506001600160a01b03813581169160208101359091169060408101359060608101359060ff6080820135169060a08101359060c00135611af9565b6103a16004803603604081101561061d57600080fd5b506001600160a01b0381358116916020013516611cf9565b610276611d16565b600d54600114610686576040805162461bcd60e51b815260206004820152600f60248201526e15985c9a595d1e4e881313d0d2d151608a1b604482015290519081900360640190fd5b6000600d55841515806106995750600084115b6106d45760405162461bcd60e51b81526004018080602001828103825260238152602001806127766023913960400191505060405180910390fd5b6106dc612700565b6040518060e0016040528060006001600160701b0316815260200160006001600160701b031681526020016000815260200160008152602001600081526020016000815260200160008152509050610732610d87565b506001600160701b0390811660208401521680825286108015610761575080602001516001600160701b031685105b6107b2576040805162461bcd60e51b815260206004820152601f60248201527f566172696574793a20494e53554646494349454e545f4c495155494449545900604482015290519081900360640190fd5b601960c08201526007546008546001600160a01b039182169190811690861682148015906107f25750806001600160a01b0316866001600160a01b031614155b610839576040805162461bcd60e51b8152602060048201526013602482015272566172696574793a20494e56414c49445f544f60681b604482015290519081900360640190fd5b871561084a5761084a82878a611e76565b861561085b5761085b818789611e76565b831561091457856001600160a01b03166310d1e85c610878612010565b8a8a89896040518663ffffffff1660e01b815260040180866001600160a01b03168152602001858152602001848152602001806020018281038252848482818152602001925080828437600081840152601f19601f8201169050808301925050509650505050505050600060405180830381600087803b1580156108fb57600080fd5b505af115801561090f573d6000803e3d6000fd5b505050505b604080516370a0823160e01b815230600482015290516001600160a01b038416916370a08231916024808301926020929190829003018186803b15801561095a57600080fd5b505afa15801561096e573d6000803e3d6000fd5b505050506040513d602081101561098457600080fd5b505160408085019190915280516370a0823160e01b815230600482015290516001600160a01b038316916370a08231916024808301926020929190829003018186803b1580156109d357600080fd5b505afa1580156109e7573d6000803e3d6000fd5b505050506040513d60208110156109fd57600080fd5b505160608401525050805160408201516001600160701b0390911687900310610a27576000610a3e565b8581600001516001600160701b0316038160400151035b8160800181815250508481602001516001600160701b031603816060015111610a68576000610a7f565b8481602001516001600160701b0316038160600151035b60a08201526080810151151580610a9a575060008160a00151115b610ad55760405162461bcd60e51b81526004018080602001828103825260228152602001806127bc6022913960400191505060405180910390fd5b6000610b0c610af58360c00151846080015161203590919063ffffffff16565b6040840151610b0690612710612035565b90612098565b90506000610b3f610b2e8460c001518560a0015161203590919063ffffffff16565b6060850151610b0690612710612035565b9050610b7c6305f5e100610b7685602001516001600160701b031686600001516001600160701b031661203590919063ffffffff16565b90612035565b610b868383612035565b1015610bc6576040805162461bcd60e51b815260206004820152600a602482015269566172696574793a204b60b01b604482015290519081900360640190fd5b5050610be481604001518260600151836000015184602001516120e8565b836001600160a01b0316610bf6612010565b6001600160a01b03167fd78ad95fa46c994b6551d0da85fc275fe613ce37657fb8d5e3d130840159d82283608001518460a001518a8a6040518085815260200184815260200183815260200182815260200194505050505060405180910390a350506001600d5550505050565b6040518060400160405280601081526020016f2b30b934b2ba3c902628102a37b5b2b760811b81525081565b6006546001600160a01b0316610ca3612010565b6001600160a01b031614610cf3576040805162461bcd60e51b81526020600482015260126024820152712b30b934b2ba3c9d102327a92124a22222a760711b604482015290519081900360640190fd5b600554600160a01b900460ff16610d3b5760405162461bcd60e51b81526004018080602001828103825260238152602001806127996023913960400191505060405180910390fd5b6005805460ff60a01b19169055610d50612010565b6001600160a01b03167f096be170ccc67847e55535e7d8334b2afedd95805baedc160005addb9144745060405160405180910390a2565b6009546001600160701b0380821692600160701b830490911691600160e01b900463ffffffff1690565b6000610dc5610dbe612010565b84846122a5565b5060015b92915050565b6007546001600160a01b031681565b60005481565b6001600160a01b03831660009081526002602052604081206000199082610e09612010565b6001600160a01b03166001600160a01b031681526020019081526020016000205414610eb2576001600160a01b0384166000908152600260205260408120610e7691849190610e56612010565b6001600160a01b0316815260208101919091526040016000205490612098565b6001600160a01b038516600090815260026020526040812090610e97612010565b6001600160a01b031681526020810191909152604001600020555b610ebd848484612307565b5060019392505050565b7f6e71edae12b1b97f4d1f60370fef10105fa2faae0126114a169c64845d6126c981565b601281565b60035481565b6006546001600160a01b03163314610f4a576040805162461bcd60e51b81526020600482015260126024820152712b30b934b2ba3c9d102327a92124a22222a760711b604482015290519081900360640190fd5b600780546001600160a01b039384166001600160a01b03199182161790915560088054929093169116179055565b600554600090600160a01b900460ff168015610fa157506005546001600160a01b038381169116145b90505b919050565b6006546001600160a01b0316610fbd612010565b6001600160a01b03161461100d576040805162461bcd60e51b81526020600482015260126024820152712b30b934b2ba3c9d102327a92124a22222a760711b604482015290519081900360640190fd5b600554600160a01b900460ff16156110565760405162461bcd60e51b81526004018080602001828103825260228152602001806127de6022913960400191505060405180910390fd5b6005805460ff60a01b1916600160a01b179055611071612010565b6001600160a01b03167f92e4c08d47b71e8dc051232b8e475ec296489a67a4ba5cca88ff20fb6ac499e660405160405180910390a2565b600a5481565b600b5481565b6000600d546001146110ff576040805162461bcd60e51b815260206004820152600f60248201526e15985c9a595d1e4e881313d0d2d151608a1b604482015290519081900360640190fd5b6000600d8190558061110f610d87565b50600754604080516370a0823160e01b815230600482015290519395509193506000926001600160a01b03909116916370a08231916024808301926020929190829003018186803b15801561116357600080fd5b505afa158015611177573d6000803e3d6000fd5b505050506040513d602081101561118d57600080fd5b5051600854604080516370a0823160e01b815230600482015290519293506000926001600160a01b03909216916370a0823191602480820192602092909190829003018186803b1580156111e057600080fd5b505afa1580156111f4573d6000803e3d6000fd5b505050506040513d602081101561120a57600080fd5b505190506000611223836001600160701b038716612098565b9050600061123a836001600160701b038716612098565b9050600061124887876123b5565b6000549091508061142f5760065460408051637cd07e4760e01b815290516000926001600160a01b031691637cd07e47916004808301926020929190829003018186803b15801561129857600080fd5b505afa1580156112ac573d6000803e3d6000fd5b505050506040513d60208110156112c257600080fd5b505190506001600160a01b0381166112d8612010565b6001600160a01b031614156113ad57806001600160a01b03166340dc0e376040518163ffffffff1660e01b815260040160206040518083038186803b15801561132057600080fd5b505afa158015611334573d6000803e3d6000fd5b505050506040513d602081101561134a57600080fd5b50519950891580159061135f57506000198a14155b6113a8576040805162461bcd60e51b81526020600482015260156024820152744261642064657369726564206c697175696469747960581b604482015290519081900360640190fd5b611429565b6001600160a01b03811615611402576040805162461bcd60e51b815260206004820152601660248201527526bab9ba103737ba103430bb329036b4b3b930ba37b960511b604482015290519081900360640190fd5b61141a6103e8610b066114158888612035565b6124f5565b995061142960006103e8612546565b50611472565b61146f6001600160701b0389166114468684612035565b8161144d57fe5b046001600160701b0389166114628685612035565b8161146957fe5b046125d0565b98505b600089116114b15760405162461bcd60e51b81526004018080602001828103825260268152602001806128006026913960400191505060405180910390fd5b6114bb8a8a612546565b6114c786868a8a6120e8565b81156114f1576009546114ed906001600160701b0380821691600160701b900416612035565b600c555b6114f9612010565b6001600160a01b03167f4c209b5fc8ad50758f13e2e1088ba56a560dff690a1c6fef26394f4c03821c4f8585604051808381526020018281526020019250505060405180910390a250506001600d5550949695505050505050565b60016020526000908152604090205481565b600c5481565b60046020526000908152604090205481565b600080600d546001146115ca576040805162461bcd60e51b815260206004820152600f60248201526e15985c9a595d1e4e881313d0d2d151608a1b604482015290519081900360640190fd5b6000600d819055806115da610d87565b50600754600854604080516370a0823160e01b815230600482015290519496509294506001600160a01b039182169391169160009184916370a08231916024808301926020929190829003018186803b15801561163657600080fd5b505afa15801561164a573d6000803e3d6000fd5b505050506040513d602081101561166057600080fd5b5051604080516370a0823160e01b815230600482015290519192506000916001600160a01b038516916370a08231916024808301926020929190829003018186803b1580156116ae57600080fd5b505afa1580156116c2573d6000803e3d6000fd5b505050506040513d60208110156116d857600080fd5b5051306000908152600160205260408120549192506116f788886123b5565b600054909150806117088487612035565b8161170f57fe5b049a508061171d8486612035565b8161172457fe5b04995060008b118015611737575060008a115b6117725760405162461bcd60e51b81526004018080602001828103825260268152602001806127506026913960400191505060405180910390fd5b61177c30846125e8565b611787878d8d611e76565b611792868d8c611e76565b604080516370a0823160e01b815230600482015290516001600160a01b038916916370a08231916024808301926020929190829003018186803b1580156117d857600080fd5b505afa1580156117ec573d6000803e3d6000fd5b505050506040513d602081101561180257600080fd5b5051604080516370a0823160e01b815230600482015290519196506001600160a01b038816916370a0823191602480820192602092909190829003018186803b15801561184e57600080fd5b505afa158015611862573d6000803e3d6000fd5b505050506040513d602081101561187857600080fd5b5051935061188885858b8b6120e8565b81156118b2576009546118ae906001600160701b0380821691600160701b900416612035565b600c555b8b6001600160a01b03166118c4612010565b6001600160a01b03167fdccd412f0b1252819cb1fd330b93224ca42612892bb3f4f789976e6d819364968d8d604051808381526020018281526020019250505060405180910390a35050505050505050506001600d81905550915091565b604051806040016040528060038152602001620534c560ec1b81525081565b600554600160a01b900460ff1681565b6000610dc561195e612010565b8484612307565b6103e881565b600d546001146119b4576040805162461bcd60e51b815260206004820152600f60248201526e15985c9a595d1e4e881313d0d2d151608a1b604482015290519081900360640190fd5b6000600d55600754600854600954604080516370a0823160e01b815230600482015290516001600160a01b039485169490931692611a5d9285928792611a58926001600160701b03169185916370a0823191602480820192602092909190829003018186803b158015611a2657600080fd5b505afa158015611a3a573d6000803e3d6000fd5b505050506040513d6020811015611a5057600080fd5b505190612098565b611e76565b611ad18184611a586009600e9054906101000a90046001600160701b03166001600160701b0316856001600160a01b03166370a08231306040518263ffffffff1660e01b815260040180826001600160a01b0316815260200191505060206040518083038186803b158015611a2657600080fd5b50506001600d5550565b6006546001600160a01b031681565b6008546001600160a01b031681565b42841015611b41576040805162461bcd60e51b815260206004820152601060248201526f15985c9a595d1e4e881156141254915160821b604482015290519081900360640190fd5b6003546001600160a01b0380891660008181526004602090815260408083208054600180820190925582517f6e71edae12b1b97f4d1f60370fef10105fa2faae0126114a169c64845d6126c98186015280840196909652958d166060860152608085018c905260a085019590955260c08085018b90528151808603909101815260e08501825280519083012061190160f01b6101008601526101028501969096526101228085019690965280518085039096018652610142840180825286519683019690962095839052610162840180825286905260ff89166101828501526101a284018890526101c28401879052519193926101e280820193601f1981019281900390910190855afa158015611c5c573d6000803e3d6000fd5b5050604051601f1901519150506001600160a01b03811615801590611c925750886001600160a01b0316816001600160a01b0316145b611ce3576040805162461bcd60e51b815260206004820152601a60248201527f566172696574793a20494e56414c49445f5349474e4154555245000000000000604482015290519081900360640190fd5b611cee8989896122a5565b505050505050505050565b600260209081526000928352604080842090915290825290205481565b600d54600114611d5f576040805162461bcd60e51b815260206004820152600f60248201526e15985c9a595d1e4e881313d0d2d151608a1b604482015290519081900360640190fd5b6000600d55600754604080516370a0823160e01b81523060048201529051611e6f926001600160a01b0316916370a08231916024808301926020929190829003018186803b158015611db057600080fd5b505afa158015611dc4573d6000803e3d6000fd5b505050506040513d6020811015611dda57600080fd5b5051600854604080516370a0823160e01b815230600482015290516001600160a01b03909216916370a0823191602480820192602092909190829003018186803b158015611e2757600080fd5b505afa158015611e3b573d6000803e3d6000fd5b505050506040513d6020811015611e5157600080fd5b50516009546001600160701b0380821691600160701b9004166120e8565b6001600d55565b604080518082018252601981527f7472616e7366657228616464726573732c75696e74323536290000000000000060209182015281516001600160a01b0385811660248301526044808301869052845180840390910181526064909201845291810180516001600160e01b031663a9059cbb60e01b1781529251815160009460609489169392918291908083835b60208310611f235780518252601f199092019160209182019101611f04565b6001836020036101000a0380198251168184511680821785525050505050509050019150506000604051808303816000865af19150503d8060008114611f85576040519150601f19603f3d011682016040523d82523d6000602084013e611f8a565b606091505b5091509150818015611fb8575080511580611fb85750808060200190516020811015611fb557600080fd5b50515b612009576040805162461bcd60e51b815260206004820152601860248201527f566172696574793a205452414e534645525f4641494c45440000000000000000604482015290519081900360640190fd5b5050505050565b600061201b33610f78565b1561202f575060131936013560601c612032565b50335b90565b60008115806120505750508082028282828161204d57fe5b04145b610dc9576040805162461bcd60e51b815260206004820152601460248201527364732d6d6174682d6d756c2d6f766572666c6f7760601b604482015290519081900360640190fd5b80820382811115610dc9576040805162461bcd60e51b815260206004820152601560248201527464732d6d6174682d7375622d756e646572666c6f7760581b604482015290519081900360640190fd5b6001600160701b03841180159061210657506001600160701b038311155b61214b576040805162461bcd60e51b8152602060048201526011602482015270566172696574793a204f564552464c4f5760781b604482015290519081900360640190fd5b60095463ffffffff42811691600160e01b9004811682039081161580159061217b57506001600160701b03841615155b801561218f57506001600160701b03831615155b156121fa578063ffffffff166121b7856121a88661267a565b6001600160e01b03169061268c565b600a80546001600160e01b03929092169290920201905563ffffffff81166121e2846121a88761267a565b600b80546001600160e01b0392909216929092020190555b600980546dffffffffffffffffffffffffffff19166001600160701b03888116919091176dffffffffffffffffffffffffffff60701b1916600160701b8883168102919091176001600160e01b0316600160e01b63ffffffff871602179283905560408051848416815291909304909116602082015281517f1c411e9a96e071241c2f21f7726b17ae89e3cab4c78be50e062b03a9fffbbad1929181900390910190a1505050505050565b6001600160a01b03808416600081815260026020908152604080832094871680845294825291829020859055815185815291517f8c5be1e5ebec7d5bd14f71427d1e84f3dd0314c0f7b2291e5b200ac8c7c3b9259281900390910190a3505050565b6001600160a01b03831660009081526001602052604090205461232a9082612098565b6001600160a01b03808516600090815260016020526040808220939093559084168152205461235990826126b1565b6001600160a01b0380841660008181526001602090815260409182902094909455805185815290519193928716927fddf252ad1be2c89b69c2b068fc378daa952ba7f163c4a11628f55a4df523b3ef92918290030190a3505050565b600080600660009054906101000a90046001600160a01b03166001600160a01b031663017e7e586040518163ffffffff1660e01b815260040160206040518083038186803b15801561240657600080fd5b505afa15801561241a573d6000803e3d6000fd5b505050506040513d602081101561243057600080fd5b5051600c546001600160a01b0382161580159450919250906124e15780156124dc57600061246d6114156001600160701b03888116908816612035565b9050600061247a836124f5565b9050808211156124d957600061249c6124938484612098565b60005490612035565b905060006124b5836124af866005612035565b906126b1565b905060008183816124c257fe5b04905080156124d5576124d58782612546565b5050505b50505b6124ed565b80156124ed576000600c555b505092915050565b60006003821115612538575080600160028204015b818110156125325780915060028182858161252157fe5b04018161252a57fe5b04905061250a565b50610fa4565b8115610fa457506001919050565b60005461255390826126b1565b60009081556001600160a01b03831681526001602052604090205461257890826126b1565b6001600160a01b03831660008181526001602090815260408083209490945583518581529351929391927fddf252ad1be2c89b69c2b068fc378daa952ba7f163c4a11628f55a4df523b3ef9281900390910190a35050565b60008183106125df57816125e1565b825b9392505050565b6001600160a01b03821660009081526001602052604090205461260b9082612098565b6001600160a01b038316600090815260016020526040812091909155546126329082612098565b60009081556040805183815290516001600160a01b038516917fddf252ad1be2c89b69c2b068fc378daa952ba7f163c4a11628f55a4df523b3ef919081900360200190a35050565b6001600160701b0316600160701b0290565b60006001600160701b0382166001600160e01b038416816126a957fe5b049392505050565b80820182811015610dc9576040805162461bcd60e51b815260206004820152601460248201527364732d6d6174682d6164642d6f766572666c6f7760601b604482015290519081900360640190fd5b6040518060e0016040528060006001600160701b0316815260200160006001600160701b031681526020016000815260200160008152602001600081526020016000815260200160008152509056fe566172696574793a20494e53554646494349454e545f4c49515549444954595f4255524e4544566172696574793a20494e53554646494349454e545f4f55545055545f414d4f554e54566172696574793a204d4554415f54584e535f414c52454144595f44495341424c4544566172696574793a20494e53554646494349454e545f494e5055545f414d4f554e54566172696574793a204d4554415f54584e535f414c52454144595f454e41424c4544566172696574793a20494e53554646494349454e545f4c49515549444954595f4d494e544544a26469706673582212203bdfa103edcf14a758b9eb6bfbfcfec30fc67391dc52d04ead2b741a1c4871e864736f6c634300060c0033566172696574793a204d4554415f54584e535f414c52454144595f44495341424c4544566172696574793a204d4554415f54584e535f414c52454144595f454e41424c4544a2646970667358221220229099e42d0ab87e68c8f4745041b394a020a25dd23cdd4fa81f89cc6f38086664736f6c634300060c0033",
  "devdoc": {
    "kind": "dev",
    "methods": {},
    "version": 1
  },
  "userdoc": {
    "kind": "user",
    "methods": {},
    "version": 1
  },
  "storageLayout": {
    "storage": [
      {
        "astId": 477,
        "contract": "contracts/uniswapv2/VarietyFactory.sol:VarietyFactory",
        "label": "feeTo",
        "offset": 0,
        "slot": "0",
        "type": "t_address"
      },
      {
        "astId": 480,
        "contract": "contracts/uniswapv2/VarietyFactory.sol:VarietyFactory",
        "label": "feeToSetter",
        "offset": 0,
        "slot": "1",
        "type": "t_address"
      },
      {
        "astId": 483,
        "contract": "contracts/uniswapv2/VarietyFactory.sol:VarietyFactory",
        "label": "migrator",
        "offset": 0,
        "slot": "2",
        "type": "t_address"
      },
      {
        "astId": 486,
        "contract": "contracts/uniswapv2/VarietyFactory.sol:VarietyFactory",
        "label": "auro",
        "offset": 0,
        "slot": "3",
        "type": "t_address"
      },
      {
        "astId": 493,
        "contract": "contracts/uniswapv2/VarietyFactory.sol:VarietyFactory",
        "label": "getPair",
        "offset": 0,
        "slot": "4",
        "type": "t_mapping(t_address,t_mapping(t_address,t_address))"
      },
      {
        "astId": 497,
        "contract": "contracts/uniswapv2/VarietyFactory.sol:VarietyFactory",
        "label": "allPairs",
        "offset": 0,
        "slot": "5",
        "type": "t_array(t_address)dyn_storage"
      }
    ],
    "types": {
      "t_address": {
        "encoding": "inplace",
        "label": "address",
        "numberOfBytes": "20"
      },
      "t_array(t_address)dyn_storage": {
        "base": "t_address",
        "encoding": "dynamic_array",
        "label": "address[]",
        "numberOfBytes": "32"
      },
      "t_mapping(t_address,t_address)": {
        "encoding": "mapping",
        "key": "t_address",
        "label": "mapping(address => address)",
        "numberOfBytes": "32",
        "value": "t_address"
      },
      "t_mapping(t_address,t_mapping(t_address,t_address))": {
        "encoding": "mapping",
        "key": "t_address",
        "label": "mapping(address => mapping(address => address))",
        "numberOfBytes": "32",
        "value": "t_mapping(t_address,t_address)"
      }
    }
  }
}