{
  "address": "0x72502B004817aAf94937b580EE65b2DFED2c7cd4",
  "abi": [
    {
      "inputs": [
        {
          "internalType": "contract IVarietyERC20",
          "name": "_Variety",
          "type": "address"
        },
        {
          "internalType": "uint256",
          "name": "_VarietyPerBlock",
          "type": "uint256"
        }
      ],
      "stateMutability": "nonpayable",
      "type": "constructor"
    },
    {
      "anonymous": false,
      "inputs": [
        {
          "indexed": true,
          "internalType": "address",
          "name": "caller",
          "type": "address"
        },
        {
          "indexed": false,
          "internalType": "uint256",
          "name": "previousAmount",
          "type": "uint256"
        },
        {
          "indexed": false,
          "internalType": "uint256",
          "name": "newAmount",
          "type": "uint256"
        }
      ],
      "name": "AllocPointsUpdated",
      "type": "event"
    },
    {
      "anonymous": false,
      "inputs": [
        {
          "indexed": true,
          "internalType": "address",
          "name": "user",
          "type": "address"
        },
        {
          "indexed": true,
          "internalType": "uint256",
          "name": "pid",
          "type": "uint256"
        },
        {
          "indexed": false,
          "internalType": "uint256",
          "name": "amount",
          "type": "uint256"
        }
      ],
      "name": "Deposit",
      "type": "event"
    },
    {
      "anonymous": false,
      "inputs": [
        {
          "indexed": true,
          "internalType": "address",
          "name": "caller",
          "type": "address"
        },
        {
          "indexed": false,
          "internalType": "address",
          "name": "oldAddress",
          "type": "address"
        },
        {
          "indexed": false,
          "internalType": "address",
          "name": "newAddress",
          "type": "address"
        }
      ],
      "name": "DevAddressChanged",
      "type": "event"
    },
    {
      "anonymous": false,
      "inputs": [
        {
          "indexed": true,
          "internalType": "address",
          "name": "user",
          "type": "address"
        },
        {
          "indexed": true,
          "internalType": "uint256",
          "name": "pid",
          "type": "uint256"
        },
        {
          "indexed": false,
          "internalType": "uint256",
          "name": "amount",
          "type": "uint256"
        }
      ],
      "name": "EmergencyWithdraw",
      "type": "event"
    },
    {
      "anonymous": false,
      "inputs": [
        {
          "indexed": true,
          "internalType": "address",
          "name": "caller",
          "type": "address"
        },
        {
          "indexed": false,
          "internalType": "uint256",
          "name": "previousAmount",
          "type": "uint256"
        },
        {
          "indexed": false,
          "internalType": "uint256",
          "name": "newAmount",
          "type": "uint256"
        }
      ],
      "name": "EmissionRateUpdated",
      "type": "event"
    },
    {
      "anonymous": false,
      "inputs": [
        {
          "indexed": true,
          "internalType": "address",
          "name": "caller",
          "type": "address"
        },
        {
          "indexed": false,
          "internalType": "address",
          "name": "oldAddress",
          "type": "address"
        },
        {
          "indexed": false,
          "internalType": "address",
          "name": "newAddress",
          "type": "address"
        }
      ],
      "name": "FeeAddressChanged",
      "type": "event"
    },
    {
      "anonymous": false,
      "inputs": [
        {
          "indexed": true,
          "internalType": "address",
          "name": "caller",
          "type": "address"
        }
      ],
      "name": "MetaTxnsDisabled",
      "type": "event"
    },
    {
      "anonymous": false,
      "inputs": [
        {
          "indexed": true,
          "internalType": "address",
          "name": "caller",
          "type": "address"
        }
      ],
      "name": "MetaTxnsEnabled",
      "type": "event"
    },
    {
      "anonymous": false,
      "inputs": [
        {
          "indexed": true,
          "internalType": "address",
          "name": "previousOperator",
          "type": "address"
        },
        {
          "indexed": true,
          "internalType": "address",
          "name": "newOperator",
          "type": "address"
        }
      ],
      "name": "OperatorTransferred",
      "type": "event"
    },
    {
      "anonymous": false,
      "inputs": [
        {
          "indexed": true,
          "internalType": "address",
          "name": "previousOwner",
          "type": "address"
        },
        {
          "indexed": true,
          "internalType": "address",
          "name": "newOwner",
          "type": "address"
        }
      ],
      "name": "OwnershipTransferred",
      "type": "event"
    },
    {
      "anonymous": false,
      "inputs": [
        {
          "indexed": true,
          "internalType": "address",
          "name": "user",
          "type": "address"
        },
        {
          "indexed": true,
          "internalType": "uint256",
          "name": "pid",
          "type": "uint256"
        },
        {
          "indexed": false,
          "internalType": "uint256",
          "name": "amountLockedUp",
          "type": "uint256"
        }
      ],
      "name": "RewardLockedUp",
      "type": "event"
    },
    {
      "anonymous": false,
      "inputs": [
        {
          "indexed": true,
          "internalType": "address",
          "name": "user",
          "type": "address"
        },
        {
          "indexed": true,
          "internalType": "uint256",
          "name": "pid",
          "type": "uint256"
        },
        {
          "indexed": false,
          "internalType": "uint256",
          "name": "amount",
          "type": "uint256"
        }
      ],
      "name": "Withdraw",
      "type": "event"
    },
    {
      "inputs": [],
      "name": "MAXIMUM_DEPOSIT_FEE_RATE",
      "outputs": [
        {
          "internalType": "uint16",
          "name": "",
          "type": "uint16"
        }
      ],
      "stateMutability": "view",
      "type": "function"
    },
    {
      "inputs": [],
      "name": "MAXIMUM_HARVEST_INTERVAL",
      "outputs": [
        {
          "internalType": "uint256",
          "name": "",
          "type": "uint256"
        }
      ],
      "stateMutability": "view",
      "type": "function"
    },
    {
      "inputs": [],
      "name": "Variety",
      "outputs": [
        {
          "internalType": "contract IVarietyERC20",
          "name": "",
          "type": "address"
        }
      ],
      "stateMutability": "view",
      "type": "function"
    },
    {
      "inputs": [],
      "name": "VarietyPerBlock",
      "outputs": [
        {
          "internalType": "uint256",
          "name": "",
          "type": "uint256"
        }
      ],
      "stateMutability": "view",
      "type": "function"
    },
    {
      "inputs": [
        {
          "internalType": "uint256",
          "name": "_allocPoint",
          "type": "uint256"
        },
        {
          "internalType": "contract IERC20",
          "name": "_lpToken",
          "type": "address"
        },
        {
          "internalType": "uint16",
          "name": "_depositFeeBP",
          "type": "uint16"
        },
        {
          "internalType": "uint256",
          "name": "_harvestInterval",
          "type": "uint256"
        },
        {
          "internalType": "bool",
          "name": "_withUpdate",
          "type": "bool"
        }
      ],
      "name": "add",
      "outputs": [],
      "stateMutability": "nonpayable",
      "type": "function"
    },
    {
      "inputs": [
        {
          "internalType": "uint256",
          "name": "_pid",
          "type": "uint256"
        },
        {
          "internalType": "address",
          "name": "_user",
          "type": "address"
        }
      ],
      "name": "canHarvest",
      "outputs": [
        {
          "internalType": "bool",
          "name": "",
          "type": "bool"
        }
      ],
      "stateMutability": "view",
      "type": "function"
    },
    {
      "inputs": [
        {
          "internalType": "uint256",
          "name": "_pid",
          "type": "uint256"
        },
        {
          "internalType": "uint256",
          "name": "_amount",
          "type": "uint256"
        }
      ],
      "name": "deposit",
      "outputs": [],
      "stateMutability": "nonpayable",
      "type": "function"
    },
    {
      "inputs": [],
      "name": "devAddress",
      "outputs": [
        {
          "internalType": "address",
          "name": "",
          "type": "address"
        }
      ],
      "stateMutability": "view",
      "type": "function"
    },
    {
      "inputs": [],
      "name": "disableMetaTxns",
      "outputs": [],
      "stateMutability": "nonpayable",
      "type": "function"
    },
    {
      "inputs": [
        {
          "internalType": "uint256",
          "name": "_pid",
          "type": "uint256"
        }
      ],
      "name": "emergencyWithdraw",
      "outputs": [],
      "stateMutability": "nonpayable",
      "type": "function"
    },
    {
      "inputs": [],
      "name": "enableMetaTxns",
      "outputs": [],
      "stateMutability": "nonpayable",
      "type": "function"
    },
    {
      "inputs": [],
      "name": "feeAddress",
      "outputs": [
        {
          "internalType": "address",
          "name": "",
          "type": "address"
        }
      ],
      "stateMutability": "view",
      "type": "function"
    },
    {
      "inputs": [
        {
          "internalType": "uint256",
          "name": "_from",
          "type": "uint256"
        },
        {
          "internalType": "uint256",
          "name": "_to",
          "type": "uint256"
        }
      ],
      "name": "getMultiplier",
      "outputs": [
        {
          "internalType": "uint256",
          "name": "",
          "type": "uint256"
        }
      ],
      "stateMutability": "pure",
      "type": "function"
    },
    {
      "inputs": [
        {
          "internalType": "address",
          "name": "forwarder",
          "type": "address"
        }
      ],
      "name": "isTrustedForwarder",
      "outputs": [
        {
          "internalType": "bool",
          "name": "",
          "type": "bool"
        }
      ],
      "stateMutability": "view",
      "type": "function"
    },
    {
      "inputs": [],
      "name": "massUpdatePools",
      "outputs": [],
      "stateMutability": "nonpayable",
      "type": "function"
    },
    {
      "inputs": [],
      "name": "metaTxnsEnabled",
      "outputs": [
        {
          "internalType": "bool",
          "name": "",
          "type": "bool"
        }
      ],
      "stateMutability": "view",
      "type": "function"
    },
    {
      "inputs": [],
      "name": "operator",
      "outputs": [
        {
          "internalType": "address",
          "name": "",
          "type": "address"
        }
      ],
      "stateMutability": "view",
      "type": "function"
    },
    {
      "inputs": [],
      "name": "owner",
      "outputs": [
        {
          "internalType": "address",
          "name": "",
          "type": "address"
        }
      ],
      "stateMutability": "view",
      "type": "function"
    },
    {
      "inputs": [
        {
          "internalType": "uint256",
          "name": "_pid",
          "type": "uint256"
        },
        {
          "internalType": "address",
          "name": "_user",
          "type": "address"
        }
      ],
      "name": "pendingVariety",
      "outputs": [
        {
          "internalType": "uint256",
          "name": "",
          "type": "uint256"
        }
      ],
      "stateMutability": "view",
      "type": "function"
    },
    {
      "inputs": [
        {
          "internalType": "uint256",
          "name": "",
          "type": "uint256"
        }
      ],
      "name": "poolInfo",
      "outputs": [
        {
          "internalType": "contract IERC20",
          "name": "lpToken",
          "type": "address"
        },
        {
          "internalType": "uint256",
          "name": "allocPoint",
          "type": "uint256"
        },
        {
          "internalType": "uint256",
          "name": "lastRewardBlock",
          "type": "uint256"
        },
        {
          "internalType": "uint256",
          "name": "accVarietyPerShare",
          "type": "uint256"
        },
        {
          "internalType": "uint16",
          "name": "depositFeeBP",
          "type": "uint16"
        },
        {
          "internalType": "uint256",
          "name": "harvestInterval",
          "type": "uint256"
        },
        {
          "internalType": "uint256",
          "name": "totalLp",
          "type": "uint256"
        }
      ],
      "stateMutability": "view",
      "type": "function"
    },
    {
      "inputs": [],
      "name": "poolLength",
      "outputs": [
        {
          "internalType": "uint256",
          "name": "",
          "type": "uint256"
        }
      ],
      "stateMutability": "view",
      "type": "function"
    },
    {
      "inputs": [],
      "name": "renounceOwnership",
      "outputs": [],
      "stateMutability": "nonpayable",
      "type": "function"
    },
    {
      "inputs": [
        {
          "internalType": "uint256",
          "name": "_pid",
          "type": "uint256"
        },
        {
          "internalType": "uint256",
          "name": "_allocPoint",
          "type": "uint256"
        },
        {
          "internalType": "uint16",
          "name": "_depositFeeBP",
          "type": "uint16"
        },
        {
          "internalType": "uint256",
          "name": "_harvestInterval",
          "type": "uint256"
        },
        {
          "internalType": "bool",
          "name": "_withUpdate",
          "type": "bool"
        }
      ],
      "name": "set",
      "outputs": [],
      "stateMutability": "nonpayable",
      "type": "function"
    },
    {
      "inputs": [
        {
          "internalType": "address",
          "name": "_devAddress",
          "type": "address"
        }
      ],
      "name": "setDevAddress",
      "outputs": [],
      "stateMutability": "nonpayable",
      "type": "function"
    },
    {
      "inputs": [
        {
          "internalType": "address",
          "name": "_feeAddress",
          "type": "address"
        }
      ],
      "name": "setFeeAddress",
      "outputs": [],
      "stateMutability": "nonpayable",
      "type": "function"
    },
    {
      "inputs": [],
      "name": "startBlock",
      "outputs": [
        {
          "internalType": "uint256",
          "name": "",
          "type": "uint256"
        }
      ],
      "stateMutability": "view",
      "type": "function"
    },
    {
      "inputs": [],
      "name": "startFarming",
      "outputs": [],
      "stateMutability": "nonpayable",
      "type": "function"
    },
    {
      "inputs": [],
      "name": "totalAllocPoint",
      "outputs": [
        {
          "internalType": "uint256",
          "name": "",
          "type": "uint256"
        }
      ],
      "stateMutability": "view",
      "type": "function"
    },
    {
      "inputs": [],
      "name": "totalLockedUpRewards",
      "outputs": [
        {
          "internalType": "uint256",
          "name": "",
          "type": "uint256"
        }
      ],
      "stateMutability": "view",
      "type": "function"
    },
    {
      "inputs": [],
      "name": "totalVarietyInPools",
      "outputs": [
        {
          "internalType": "uint256",
          "name": "",
          "type": "uint256"
        }
      ],
      "stateMutability": "view",
      "type": "function"
    },
    {
      "inputs": [
        {
          "internalType": "address",
          "name": "newOperator",
          "type": "address"
        }
      ],
      "name": "transferOperator",
      "outputs": [],
      "stateMutability": "nonpayable",
      "type": "function"
    },
    {
      "inputs": [
        {
          "internalType": "address",
          "name": "newOwner",
          "type": "address"
        }
      ],
      "name": "transferOwnership",
      "outputs": [],
      "stateMutability": "nonpayable",
      "type": "function"
    },
    {
      "inputs": [
        {
          "internalType": "uint256",
          "name": "_pid",
          "type": "uint256"
        },
        {
          "internalType": "uint256",
          "name": "_allocPoint",
          "type": "uint256"
        },
        {
          "internalType": "bool",
          "name": "_withUpdate",
          "type": "bool"
        }
      ],
      "name": "updateAllocPoint",
      "outputs": [],
      "stateMutability": "nonpayable",
      "type": "function"
    },
    {
      "inputs": [
        {
          "internalType": "uint256",
          "name": "_VarietyPerBlock",
          "type": "uint256"
        }
      ],
      "name": "updateEmissionRate",
      "outputs": [],
      "stateMutability": "nonpayable",
      "type": "function"
    },
    {
      "inputs": [
        {
          "internalType": "uint256",
          "name": "_pid",
          "type": "uint256"
        }
      ],
      "name": "updatePool",
      "outputs": [],
      "stateMutability": "nonpayable",
      "type": "function"
    },
    {
      "inputs": [
        {
          "internalType": "uint256",
          "name": "",
          "type": "uint256"
        },
        {
          "internalType": "address",
          "name": "",
          "type": "address"
        }
      ],
      "name": "userInfo",
      "outputs": [
        {
          "internalType": "uint256",
          "name": "amount",
          "type": "uint256"
        },
        {
          "internalType": "uint256",
          "name": "rewardDebt",
          "type": "uint256"
        },
        {
          "internalType": "uint256",
          "name": "rewardLockedUp",
          "type": "uint256"
        },
        {
          "internalType": "uint256",
          "name": "nextHarvestUntil",
          "type": "uint256"
        }
      ],
      "stateMutability": "view",
      "type": "function"
    },
    {
      "inputs": [
        {
          "internalType": "uint256",
          "name": "_pid",
          "type": "uint256"
        },
        {
          "internalType": "uint256",
          "name": "_amount",
          "type": "uint256"
        }
      ],
      "name": "withdraw",
      "outputs": [],
      "stateMutability": "nonpayable",
      "type": "function"
    }
  ],
  "transactionHash": "0x527cdbe4c0059b23586dad8524f66d79cf042945f0e122f14ad740104246448e",
  "args": [
    "0x8Dd5d27874D877666193251756334b9291ED114F",
    "60000000000000000000"
  ],
  "solcInputHash": "3eb62949c7b0d89a97e973f3449bef2e",
  "bytecode": "0x608060405260006009819055600c55600d805460ff191690553480156200002557600080fd5b5060405162002b6a38038062002b6a8339810160408190526200004891620001ba565b6200005c62000056620000f0565b6200012e565b6001805562000070436312cc0300620001f4565b600a55600280546001600160a01b038085166001600160a01b031992831617909255600683905560048054821633908117909155600580548316821790556003805490921617908190556040519116906000907f74da04524d50c64947f5dd5381ef1a4dca5cba8ed1d816243f9e48aa0b5617ed908290a3505062000219565b6000620000fd336200017e565b1562000113575060131936013560601c6200012b565b62000128620001b660201b62001e621760201c565b90505b90565b600080546001600160a01b038381166001600160a01b0319831681178455604051919092169283917f8be0079c531659141344cd1fd0a4f28419497f9722a3daafe3b4186f6b6457e09190a35050565b600d5460009060ff168015620001b057506001600160a01b03821673262a73ae4376a4d142a897c5e8148fd5f537eeb2145b92915050565b3390565b60008060408385031215620001cd578182fd5b82516001600160a01b0381168114620001e4578283fd5b6020939093015192949293505050565b600082198211156200021457634e487b7160e01b81526011600452602481fd5b500190565b61294180620002296000396000f3fe608060405234801561001057600080fd5b50600436106102275760003560e01c8063572b6c0511610130578063a8c95dc0116100b8578063d10060fb1161007c578063d10060fb146104ee578063d2859dd314610501578063de73149d1461050a578063e2bbb15814610514578063f2fde38b1461052757610227565b8063a8c95dc0146104a0578063af018de8146104ad578063afbcfea1146104c0578063bde4aeca146104c8578063d0d41fe1146104db57610227565b8063812c64f1116100ff578063812c64f1146103ed5780638705fcd4146104095780638da5cb5b1461041c5780638dbb1e3a1461042d57806393f1a40b1461044057610227565b8063572b6c05146103c2578063578bb42d146103d5578063630b5ba1146103dd578063715018a6146103e557610227565b806341275358116101b35780634af641be116101825780634af641be1461036f57806351eb05a614610378578063521f82961461038b5780635312ea8e1461039e578063570ca735146103b157610227565b80634127535814610337578063441a3e701461034a578063474fa6301461035d57806348cd4cb11461036657610227565b806317caf6f1116101fa57806317caf6f1146102ba5780632143e545146102c357806329605e77146102d65780632e6c998d146102e95780633ad10ef61461030c57610227565b8063081e3eda1461022c57806308383640146102475780630ba84cd2146102515780631526fe2714610264575b600080fd5b61023461053a565b6040519081526020015b60405180910390f35b61024f610541565b005b61024f61025f3660046125dc565b61061e565b6102776102723660046125dc565b610693565b604080516001600160a01b039098168852602088019690965294860193909352606085019190915261ffff16608084015260a083015260c082015260e00161023e565b61023460095481565b61024f6102d13660046126f0565b6106f0565b61024f6102e43660046125a4565b610909565b6102fc6102f736600461260c565b610a00565b604051901515815260200161023e565b60045461031f906001600160a01b031681565b6040516001600160a01b03909116815260200161023e565b60055461031f906001600160a01b031681565b61024f610358366004612697565b610a40565b610234600b5481565b610234600a5481565b610234600c5481565b61024f6103863660046125dc565b610c7a565b61023461039936600461260c565b610e47565b61024f6103ac3660046125dc565b610fe2565b6003546001600160a01b031661031f565b6102fc6103d03660046125a4565b611190565b61024f6111c9565b61024f6112a0565b61024f6112cb565b6103f66103e881565b60405161ffff909116815260200161023e565b61024f6104173660046125a4565b611320565b6000546001600160a01b031661031f565b61023461043b366004612697565b61144c565b61048061044e36600461260c565b600860209081526000928352604080842090915290825290208054600182015460028301546003909301549192909184565b60408051948552602085019390935291830152606082015260800161023e565b600d546102fc9060ff1681565b61024f6104bb36600461263b565b61145f565b61024f611713565b61024f6104d63660046126b8565b611811565b61024f6104e93660046125a4565b611938565b60025461031f906001600160a01b031681565b61023460065481565b6102346212750081565b61024f610522366004612697565b611a64565b61024f6105353660046125a4565b611dab565b6007545b90565b6003546001600160a01b031633146105745760405162461bcd60e51b815260040161056b906127d9565b60405180910390fd5b600d5460ff166105d55760405162461bcd60e51b815260206004820152602660248201527f4d657461207472616e73616374696f6e732061726520616c72656164792064696044820152651cd8589b195960d21b606482015260840161056b565b600d805460ff191690556105e7611e66565b6001600160a01b03167f096be170ccc67847e55535e7d8334b2afedd95805baedc160005addb9144745060405160405180910390a2565b6003546001600160a01b031633146106485760405162461bcd60e51b815260040161056b906127d9565b6106506112a0565b600654604080519182526020820183905233917feedc6338c9c1ad8f3cd6c90dd09dbe98dbd57e610d3e59a17996d07acb0d9511910160405180910390a2600655565b600781815481106106a357600080fd5b600091825260209091206007909102018054600182015460028301546003840154600485015460058601546006909601546001600160a01b03909516965092949193909261ffff16919087565b6106f8611e66565b6001600160a01b03166107136000546001600160a01b031690565b6001600160a01b0316146107395760405162461bcd60e51b815260040161056b9061276d565b6103e861ffff8416111561078f5760405162461bcd60e51b815260206004820152601960248201527f7365743a206465706f7369742066656520746f6f206869676800000000000000604482015260640161056b565b621275008211156107e25760405162461bcd60e51b815260206004820152601d60248201527f7365743a20696e76616c6964206861727665737420696e74657276616c000000604482015260640161056b565b80156107f0576107f06112a0565b6108418461083b6007888154811061081857634e487b7160e01b600052603260045260246000fd5b906000526020600020906007020160010154600954611e8c90919063ffffffff16565b90611e98565b600981905550836007868154811061086957634e487b7160e01b600052603260045260246000fd5b90600052602060002090600702016001018190555082600786815481106108a057634e487b7160e01b600052603260045260246000fd5b906000526020600020906007020160040160006101000a81548161ffff021916908361ffff16021790555081600786815481106108ed57634e487b7160e01b600052603260045260246000fd5b9060005260206000209060070201600501819055505050505050565b6003546001600160a01b031633146109335760405162461bcd60e51b815260040161056b906127d9565b6001600160a01b0381166109a45760405162461bcd60e51b815260206004820152603260248201527f5472616e736665724f70657261746f723a206e6577206f70657261746f7220696044820152717320746865207a65726f206164647265737360701b606482015260840161056b565b6003546040516001600160a01b038084169216907f74da04524d50c64947f5dd5381ef1a4dca5cba8ed1d816243f9e48aa0b5617ed90600090a3600380546001600160a01b0319166001600160a01b0392909216919091179055565b60008281526008602090815260408083206001600160a01b03851684529091528120600a544310801590610a38575080600301544210155b949350505050565b60026001541415610a635760405162461bcd60e51b815260040161056b906127a2565b6002600181905550600060078381548110610a8e57634e487b7160e01b600052603260045260246000fd5b60009182526020808320868452600890915260408320600790920201925081610ab5611e66565b6001600160a01b03166001600160a01b0316815260200190815260200160002090508281600001541015610b2b5760405162461bcd60e51b815260206004820181905260248201527f57697468647261773a205573657220616d6f756e74206e6f7420656e6f756768604482015260640161056b565b8282600601541015610b7f5760405162461bcd60e51b815260206004820152601f60248201527f57697468647261773a20506f6f6c20746f74616c206e6f7420656e6f75676800604482015260640161056b565b610b8884610c7a565b610b9184611ea4565b8215610bff578054610ba39084611e8c565b81556006820154610bb49084611e8c565b600683015560025482546001600160a01b0390811691161415610be257600c54610bde9084611e8c565b600c555b610bff610bed611e66565b83546001600160a01b03169085612081565b60038201548154610c209164e8d4a5100091610c1a916120e9565b906120f5565b600182015583610c2e611e66565b6001600160a01b03167ff279e6a1f5e320cca91135676d9cb6e44ca8a08c0b88342bcdb1144f6511b56885604051610c6891815260200190565b60405180910390a35050600180555050565b600060078281548110610c9d57634e487b7160e01b600052603260045260246000fd5b9060005260206000209060070201905080600201544311610cbe5750610e44565b6006810154801580610cd257506001820154155b15610ce4575043600290910155610e44565b6000610cf483600201544361144c565b90506000610d21600954610c1a8660010154610d1b600654876120e990919063ffffffff16565b906120e9565b6002546004549192506001600160a01b03908116916340c10f199116610d4884600a6120f5565b6040516001600160e01b031960e085901b1681526001600160a01b0390921660048301526024820152604401600060405180830381600087803b158015610d8e57600080fd5b505af1158015610da2573d6000803e3d6000fd5b50506002546040516340c10f1960e01b8152306004820152602481018590526001600160a01b0390911692506340c10f199150604401600060405180830381600087803b158015610df257600080fd5b505af1158015610e06573d6000803e3d6000fd5b5050506006850154610e319150610e2690610c1a8464e8d4a510006120e9565b600386015490611e98565b6003850155505043600290920191909155505b50565b60008060078481548110610e6b57634e487b7160e01b600052603260045260246000fd5b600091825260208083208784526008825260408085206001600160a01b03898116875293528085206007949094029091016003810154815492516370a0823160e01b815230600482015291965093949291909116906370a082319060240160206040518083038186803b158015610ee157600080fd5b505afa158015610ef5573d6000803e3d6000fd5b505050506040513d601f19601f82011682018060405250810190610f1991906125f4565b9050836002015443118015610f2d57508015155b15610f8d576000610f4285600201544361144c565b90506000610f69600954610c1a8860010154610d1b600654876120e990919063ffffffff16565b9050610f88610f8184610c1a8464e8d4a510006120e9565b8590611e98565b935050505b6000610fbd8460010154610fb764e8d4a51000610c1a8789600001546120e990919063ffffffff16565b90611e8c565b9050610fd6846002015482611e9890919063ffffffff16565b98975050505050505050565b600260015414156110055760405162461bcd60e51b815260040161056b906127a2565b600260018190555060006007828154811061103057634e487b7160e01b600052603260045260246000fd5b60009182526020808320858452600890915260408320600790920201925081611057611e66565b6001600160a01b03168152602081019190915260400160002080546006840154919250908111156110db5760405162461bcd60e51b815260206004820152602860248201527f456d657267656e637957697468647261773a20506f6f6c20746f74616c206e6f6044820152670e840cadcdeeaced60c31b606482015260840161056b565b60008083556001830181905560028301819055600383015560068301546111029082611e8c565b600684015560025483546001600160a01b039081169116141561113057600c5461112c9082611e8c565b600c555b61114d61113b611e66565b84546001600160a01b03169083612081565b83611156611e66565b6001600160a01b03167fbb757047c2b5f3974fe26b7c10f732e7bce710b0952a71082702781e62ae059583604051610c6891815260200190565b600d5460009060ff1680156111c157506001600160a01b03821673262a73ae4376a4d142a897c5e8148fd5f537eeb2145b90505b919050565b6003546001600160a01b031633146111f35760405162461bcd60e51b815260040161056b906127d9565b600d5460ff16156112545760405162461bcd60e51b815260206004820152602560248201527f4d657461207472616e73616374696f6e732061726520616c726561647920656e60448201526418589b195960da1b606482015260840161056b565b600d805460ff19166001179055611269611e66565b6001600160a01b03167f92e4c08d47b71e8dc051232b8e475ec296489a67a4ba5cca88ff20fb6ac499e660405160405180910390a2565b60075460005b818110156112c7576112b781610c7a565b6112c0816128b7565b90506112a6565b5050565b6112d3611e66565b6001600160a01b03166112ee6000546001600160a01b031690565b6001600160a01b0316146113145760405162461bcd60e51b815260040161056b9061276d565b61131e6000612101565b565b6005546001600160a01b0316611334611e66565b6001600160a01b03161461138a5760405162461bcd60e51b815260206004820152601860248201527f736574466565416464726573733a20464f5242494444454e0000000000000000604482015260640161056b565b6001600160a01b0381166113d65760405162461bcd60e51b8152602060048201526013602482015272736574466565416464726573733a205a45524f60681b604482015260640161056b565b6113de611e66565b600554604080516001600160a01b039283168152848316602082015292909116917f6690a53895b5691c039238b384bd857e65c42adcc727775381e02cb90a122613910160405180910390a2600580546001600160a01b0319166001600160a01b0392909216919091179055565b60006114588284611e8c565b9392505050565b611467611e66565b6001600160a01b03166114826000546001600160a01b031690565b6001600160a01b0316146114a85760405162461bcd60e51b815260040161056b9061276d565b6103e861ffff841611156114fe5760405162461bcd60e51b815260206004820152601960248201527f6164643a206465706f7369742066656520746f6f206869676800000000000000604482015260640161056b565b621275008211156115515760405162461bcd60e51b815260206004820152601d60248201527f6164643a20696e76616c6964206861727665737420696e74657276616c000000604482015260640161056b565b801561155f5761155f6112a0565b6000600a54431161157257600a54611574565b435b6009549091506115849087611e98565b6009556040805160e0810182526001600160a01b0396871681526020810197885290810191825260006060820181815261ffff9687166080840190815260a0840196875260c08401838152600780546001810182559481905294517fa66cc928b5edb82af9bd49922954155ab7b0942694bea4ce44661d9a8736c6889490950293840180546001600160a01b03191695909a169490941790985597517fa66cc928b5edb82af9bd49922954155ab7b0942694bea4ce44661d9a8736c68982015591517fa66cc928b5edb82af9bd49922954155ab7b0942694bea4ce44661d9a8736c68a83015595517fa66cc928b5edb82af9bd49922954155ab7b0942694bea4ce44661d9a8736c68b82015593517fa66cc928b5edb82af9bd49922954155ab7b0942694bea4ce44661d9a8736c68c8501805461ffff19169190941617909255517fa66cc928b5edb82af9bd49922954155ab7b0942694bea4ce44661d9a8736c68d8301555090517fa66cc928b5edb82af9bd49922954155ab7b0942694bea4ce44661d9a8736c68e90910155565b61171b611e66565b6001600160a01b03166117366000546001600160a01b031690565b6001600160a01b03161461175c5760405162461bcd60e51b815260040161056b9061276d565b600a5443106117ad5760405162461bcd60e51b815260206004820152601b60248201527f4572726f723a3a4661726d207374617274656420616c72656164790000000000604482015260640161056b565b60075460005b81811015611809576000600782815481106117de57634e487b7160e01b600052603260045260246000fd5b906000526020600020906007020190504381600201819055505080611802906128b7565b90506117b3565b505043600a55565b6003546001600160a01b0316331461183b5760405162461bcd60e51b815260040161056b906127d9565b8015611849576118496112a0565b611851611e66565b6001600160a01b03167f802633c8d26237616d81bdac01bc40fcdf36e098832601582ec19d7e431c5ef36007858154811061189c57634e487b7160e01b600052603260045260246000fd5b906000526020600020906007020160010154846040516118c6929190918252602082015260400190565b60405180910390a26118f68261083b6007868154811061081857634e487b7160e01b600052603260045260246000fd5b600981905550816007848154811061191e57634e487b7160e01b600052603260045260246000fd5b906000526020600020906007020160010181905550505050565b6004546001600160a01b031661194c611e66565b6001600160a01b0316146119a25760405162461bcd60e51b815260206004820152601860248201527f736574446576416464726573733a20464f5242494444454e0000000000000000604482015260640161056b565b6001600160a01b0381166119ee5760405162461bcd60e51b8152602060048201526013602482015272736574446576416464726573733a205a45524f60681b604482015260640161056b565b6119f6611e66565b600454604080516001600160a01b039283168152848316602082015292909116917fd36d63f6c513a911d7912853de740af476b0fbb569aa769e1a4f5bfa37a325c4910160405180910390a2600480546001600160a01b0319166001600160a01b0392909216919091179055565b60026001541415611a875760405162461bcd60e51b815260040161056b906127a2565b6002600155600a54431015611af75760405162461bcd60e51b815260206004820152603060248201527f566172696574794469737472696275746f723a2043616e206e6f74206465706f60448201526f1cda5d081899599bdc99481cdd185c9d60821b606482015260840161056b565b600060078381548110611b1a57634e487b7160e01b600052603260045260246000fd5b60009182526020808320868452600890915260408320600790920201925081611b41611e66565b6001600160a01b03166001600160a01b031681526020019081526020016000209050611b6c84610c7a565b611b7584611ea4565b8215611d485781546040516370a0823160e01b81523060048201526000916001600160a01b0316906370a082319060240160206040518083038186803b158015611bbe57600080fd5b505afa158015611bd2573d6000803e3d6000fd5b505050506040513d601f19601f82011682018060405250810190611bf691906125f4565b9050611c16611c03611e66565b84546001600160a01b0316903087612151565b82546040516370a0823160e01b81523060048201526000916001600160a01b0316906370a082319060240160206040518083038186803b158015611c5957600080fd5b505afa158015611c6d573d6000803e3d6000fd5b505050506040513d601f19601f82011682018060405250810190611c9191906125f4565b9050611c9d8183611e8c565b600485015490955061ffff1615611cfa576004840154600090611ccd9061271090610c1a90899061ffff166120e9565b6005548654919250611cec916001600160a01b03908116911683612081565b611cf68682611e8c565b9550505b8254611d069086611e98565b83556006840154611d179086611e98565b600685015560025484546001600160a01b0390811691161415611d4557600c54611d419086611e98565b600c555b50505b60038201548154611d639164e8d4a5100091610c1a916120e9565b600182015583611d71611e66565b6001600160a01b03167f90890809c654f11d6e72a28fa60149770a0d11ec6c92319d6ceb2bb0a4ea1a1585604051610c6891815260200190565b611db3611e66565b6001600160a01b0316611dce6000546001600160a01b031690565b6001600160a01b031614611df45760405162461bcd60e51b815260040161056b9061276d565b6001600160a01b038116611e595760405162461bcd60e51b815260206004820152602660248201527f4f776e61626c653a206e6577206f776e657220697320746865207a65726f206160448201526564647265737360d01b606482015260840161056b565b610e4481612101565b3390565b6000611e7133611190565b15611e85575060131936013560601c61053e565b503361053e565b60006114588284612874565b6000611458828461281d565b600060078281548110611ec757634e487b7160e01b600052603260045260246000fd5b60009182526020808320858452600890915260408320600790920201925081611eee611e66565b6001600160a01b03166001600160a01b03168152602001908152602001600020905080600301546000148015611f265750600a544310155b15611f41576005820154611f3b904290611e98565b60038201555b6000611f6f8260010154610fb764e8d4a51000610c1a876003015487600001546120e990919063ffffffff16565b9050611f7d846102f7611e66565b15612005576000811180611f95575060008260020154115b15612000576000611fb3836002015483611e9890919063ffffffff16565b9050611fce8360020154600b54611e8c90919063ffffffff16565b600b55600060028401556005840154611fe8904290611e98565b6003840155611ffe611ff8611e66565b82612189565b505b61207b565b801561207b57600282015461201a9082611e98565b6002830155600b5461202c9082611e98565b600b5583612038611e66565b6001600160a01b03167fee470483107f579a55c754fa00613c45a9a3b617a418b39cb0be97e5381ba7c18360405161207291815260200190565b60405180910390a35b50505050565b6040516001600160a01b0383166024820152604481018290526120e490849063a9059cbb60e01b906064015b60408051601f198184030181529190526020810180516001600160e01b03166001600160e01b0319909316929092179091526123b5565b505050565b60006114588284612855565b60006114588284612835565b600080546001600160a01b038381166001600160a01b0319831681178455604051919092169283917f8be0079c531659141344cd1fd0a4f28419497f9722a3daafe3b4186f6b6457e09190a35050565b6040516001600160a01b038085166024830152831660448201526064810182905261207b9085906323b872dd60e01b906084016120ad565b600c546002546040516370a0823160e01b81523060048201526001600160a01b03909116906370a082319060240160206040518083038186803b1580156121cf57600080fd5b505afa1580156121e3573d6000803e3d6000fd5b505050506040513d601f19601f8201168201806040525081019061220791906125f4565b11156112c757600c546002546040516370a0823160e01b81523060048201526000926122949290916001600160a01b03909116906370a082319060240160206040518083038186803b15801561225c57600080fd5b505afa158015612270573d6000803e3d6000fd5b505050506040513d601f19601f82011682018060405250810190610fb791906125f4565b90508082106123295760025460405163a9059cbb60e01b81526001600160a01b038581166004830152602482018490529091169063a9059cbb90604401602060405180830381600087803b1580156122eb57600080fd5b505af11580156122ff573d6000803e3d6000fd5b505050506040513d601f19601f8201168201806040525081019061232391906125c0565b506120e4565b81156120e45760025460405163a9059cbb60e01b81526001600160a01b038581166004830152602482018590529091169063a9059cbb90604401602060405180830381600087803b15801561237d57600080fd5b505af1158015612391573d6000803e3d6000fd5b505050506040513d601f19601f8201168201806040525081019061207b91906125c0565b600061240a826040518060400160405280602081526020017f5361666545524332303a206c6f772d6c6576656c2063616c6c206661696c6564815250856001600160a01b03166124879092919063ffffffff16565b8051909150156120e4578080602001905181019061242891906125c0565b6120e45760405162461bcd60e51b815260206004820152602a60248201527f5361666545524332303a204552433230206f7065726174696f6e20646964206e6044820152691bdd081cdd58d8d9595960b21b606482015260840161056b565b6060610a38848460008585843b6124e05760405162461bcd60e51b815260206004820152601d60248201527f416464726573733a2063616c6c20746f206e6f6e2d636f6e7472616374000000604482015260640161056b565b600080866001600160a01b031685876040516124fc919061271e565b60006040518083038185875af1925050503d8060008114612539576040519150601f19603f3d011682016040523d82523d6000602084013e61253e565b606091505b509150915061254e828286612559565b979650505050505050565b60608315612568575081611458565b8251156125785782518084602001fd5b8160405162461bcd60e51b815260040161056b919061273a565b803561ffff811681146111c457600080fd5b6000602082840312156125b5578081fd5b8135611458816128e8565b6000602082840312156125d1578081fd5b8151611458816128fd565b6000602082840312156125ed578081fd5b5035919050565b600060208284031215612605578081fd5b5051919050565b6000806040838503121561261e578081fd5b823591506020830135612630816128e8565b809150509250929050565b600080600080600060a08688031215612652578081fd5b853594506020860135612664816128e8565b935061267260408701612592565b9250606086013591506080860135612689816128fd565b809150509295509295909350565b600080604083850312156126a9578182fd5b50508035926020909101359150565b6000806000606084860312156126cc578283fd5b833592506020840135915060408401356126e5816128fd565b809150509250925092565b600080600080600060a08688031215612707578081fd5b853594506020860135935061267260408701612592565b6000825161273081846020870161288b565b9190910192915050565b600060208252825180602084015261275981604085016020870161288b565b601f01601f19169190910160400192915050565b6020808252818101527f4f776e61626c653a2063616c6c6572206973206e6f7420746865206f776e6572604082015260600190565b6020808252601f908201527f5265656e7472616e637947756172643a207265656e7472616e742063616c6c00604082015260600190565b60208082526024908201527f4f70657261746f723a2063616c6c6572206973206e6f7420746865206f70657260408201526330ba37b960e11b606082015260800190565b60008219821115612830576128306128d2565b500190565b60008261285057634e487b7160e01b81526012600452602481fd5b500490565b600081600019048311821515161561286f5761286f6128d2565b500290565b600082821015612886576128866128d2565b500390565b60005b838110156128a657818101518382015260200161288e565b8381111561207b5750506000910152565b60006000198214156128cb576128cb6128d2565b5060010190565b634e487b7160e01b600052601160045260246000fd5b6001600160a01b0381168114610e4457600080fd5b8015158114610e4457600080fdfea26469706673582212205c1458f470d4965e98d92d508647ebdddd17838e3d04e365909b0780eed680da64736f6c63430008020033",
  "devdoc": {
    "kind": "dev",
    "methods": {
      "owner()": {
        "details": "Returns the address of the current owner."
      },
      "renounceOwnership()": {
        "details": "Leaves the contract without owner. It will not be possible to call `onlyOwner` functions anymore. Can only be called by the current owner. NOTE: Renouncing ownership will leave the contract without an owner, thereby removing any functionality that is only available to the owner."
      },
      "transferOwnership(address)": {
        "details": "Transfers ownership of the contract to a new account (`newOwner`). Can only be called by the current owner."
      }
    },
    "version": 1
  },
  "userdoc": {
    "kind": "user",
    "methods": {},
    "version": 1
  },
  "storageLayout": {
    "storage": [
      {
        "astId": 387,
        "contract": "contracts/farm/VarietyDistributor.sol:VarietyDistributor",
        "label": "_owner",
        "offset": 0,
        "slot": "0",
        "type": "t_address"
      },
      {
        "astId": 663,
        "contract": "contracts/farm/VarietyDistributor.sol:VarietyDistributor",
        "label": "_status",
        "offset": 0,
        "slot": "1",
        "type": "t_uint256"
      },
      {
        "astId": 3283,
        "contract": "contracts/farm/VarietyDistributor.sol:VarietyDistributor",
        "label": "Variety",
        "offset": 0,
        "slot": "2",
        "type": "t_contract(IVarietyERC20)3233"
      },
      {
        "astId": 3285,
        "contract": "contracts/farm/VarietyDistributor.sol:VarietyDistributor",
        "label": "_operator",
        "offset": 0,
        "slot": "3",
        "type": "t_address"
      },
      {
        "astId": 3287,
        "contract": "contracts/farm/VarietyDistributor.sol:VarietyDistributor",
        "label": "devAddress",
        "offset": 0,
        "slot": "4",
        "type": "t_address"
      },
      {
        "astId": 3289,
        "contract": "contracts/farm/VarietyDistributor.sol:VarietyDistributor",
        "label": "feeAddress",
        "offset": 0,
        "slot": "5",
        "type": "t_address"
      },
      {
        "astId": 3291,
        "contract": "contracts/farm/VarietyDistributor.sol:VarietyDistributor",
        "label": "VarietyPerBlock",
        "offset": 0,
        "slot": "6",
        "type": "t_uint256"
      },
      {
        "astId": 3301,
        "contract": "contracts/farm/VarietyDistributor.sol:VarietyDistributor",
        "label": "poolInfo",
        "offset": 0,
        "slot": "7",
        "type": "t_array(t_struct(PoolInfo)3280_storage)dyn_storage"
      },
      {
        "astId": 3308,
        "contract": "contracts/farm/VarietyDistributor.sol:VarietyDistributor",
        "label": "userInfo",
        "offset": 0,
        "slot": "8",
        "type": "t_mapping(t_uint256,t_mapping(t_address,t_struct(UserInfo)3264_storage))"
      },
      {
        "astId": 3311,
        "contract": "contracts/farm/VarietyDistributor.sol:VarietyDistributor",
        "label": "totalAllocPoint",
        "offset": 0,
        "slot": "9",
        "type": "t_uint256"
      },
      {
        "astId": 3313,
        "contract": "contracts/farm/VarietyDistributor.sol:VarietyDistributor",
        "label": "startBlock",
        "offset": 0,
        "slot": "10",
        "type": "t_uint256"
      },
      {
        "astId": 3315,
        "contract": "contracts/farm/VarietyDistributor.sol:VarietyDistributor",
        "label": "totalLockedUpRewards",
        "offset": 0,
        "slot": "11",
        "type": "t_uint256"
      },
      {
        "astId": 3318,
        "contract": "contracts/farm/VarietyDistributor.sol:VarietyDistributor",
        "label": "totalVarietyInPools",
        "offset": 0,
        "slot": "12",
        "type": "t_uint256"
      },
      {
        "astId": 3321,
        "contract": "contracts/farm/VarietyDistributor.sol:VarietyDistributor",
        "label": "metaTxnsEnabled",
        "offset": 0,
        "slot": "13",
        "type": "t_bool"
      }
    ],
    "types": {
      "t_address": {
        "encoding": "inplace",
        "label": "address",
        "numberOfBytes": "20"
      },
      "t_array(t_struct(PoolInfo)3280_storage)dyn_storage": {
        "base": "t_struct(PoolInfo)3280_storage",
        "encoding": "dynamic_array",
        "label": "struct VarietyDistributor.PoolInfo[]",
        "numberOfBytes": "32"
      },
      "t_bool": {
        "encoding": "inplace",
        "label": "bool",
        "numberOfBytes": "1"
      },
      "t_contract(IERC20)1316": {
        "encoding": "inplace",
        "label": "contract IERC20",
        "numberOfBytes": "20"
      },
      "t_contract(IVarietyERC20)3233": {
        "encoding": "inplace",
        "label": "contract IVarietyERC20",
        "numberOfBytes": "20"
      },
      "t_mapping(t_address,t_struct(UserInfo)3264_storage)": {
        "encoding": "mapping",
        "key": "t_address",
        "label": "mapping(address => struct VarietyDistributor.UserInfo)",
        "numberOfBytes": "32",
        "value": "t_struct(UserInfo)3264_storage"
      },
      "t_mapping(t_uint256,t_mapping(t_address,t_struct(UserInfo)3264_storage))": {
        "encoding": "mapping",
        "key": "t_uint256",
        "label": "mapping(uint256 => mapping(address => struct VarietyDistributor.UserInfo))",
        "numberOfBytes": "32",
        "value": "t_mapping(t_address,t_struct(UserInfo)3264_storage)"
      },
      "t_struct(PoolInfo)3280_storage": {
        "encoding": "inplace",
        "label": "struct VarietyDistributor.PoolInfo",
        "members": [
          {
            "astId": 3267,
            "contract": "contracts/farm/VarietyDistributor.sol:VarietyDistributor",
            "label": "lpToken",
            "offset": 0,
            "slot": "0",
            "type": "t_contract(IERC20)1316"
          },
          {
            "astId": 3269,
            "contract": "contracts/farm/VarietyDistributor.sol:VarietyDistributor",
            "label": "allocPoint",
            "offset": 0,
            "slot": "1",
            "type": "t_uint256"
          },
          {
            "astId": 3271,
            "contract": "contracts/farm/VarietyDistributor.sol:VarietyDistributor",
            "label": "lastRewardBlock",
            "offset": 0,
            "slot": "2",
            "type": "t_uint256"
          },
          {
            "astId": 3273,
            "contract": "contracts/farm/VarietyDistributor.sol:VarietyDistributor",
            "label": "accVarietyPerShare",
            "offset": 0,
            "slot": "3",
            "type": "t_uint256"
          },
          {
            "astId": 3275,
            "contract": "contracts/farm/VarietyDistributor.sol:VarietyDistributor",
            "label": "depositFeeBP",
            "offset": 0,
            "slot": "4",
            "type": "t_uint16"
          },
          {
            "astId": 3277,
            "contract": "contracts/farm/VarietyDistributor.sol:VarietyDistributor",
            "label": "harvestInterval",
            "offset": 0,
            "slot": "5",
            "type": "t_uint256"
          },
          {
            "astId": 3279,
            "contract": "contracts/farm/VarietyDistributor.sol:VarietyDistributor",
            "label": "totalLp",
            "offset": 0,
            "slot": "6",
            "type": "t_uint256"
          }
        ],
        "numberOfBytes": "224"
      },
      "t_struct(UserInfo)3264_storage": {
        "encoding": "inplace",
        "label": "struct VarietyDistributor.UserInfo",
        "members": [
          {
            "astId": 3257,
            "contract": "contracts/farm/VarietyDistributor.sol:VarietyDistributor",
            "label": "amount",
            "offset": 0,
            "slot": "0",
            "type": "t_uint256"
          },
          {
            "astId": 3259,
            "contract": "contracts/farm/VarietyDistributor.sol:VarietyDistributor",
            "label": "rewardDebt",
            "offset": 0,
            "slot": "1",
            "type": "t_uint256"
          },
          {
            "astId": 3261,
            "contract": "contracts/farm/VarietyDistributor.sol:VarietyDistributor",
            "label": "rewardLockedUp",
            "offset": 0,
            "slot": "2",
            "type": "t_uint256"
          },
          {
            "astId": 3263,
            "contract": "contracts/farm/VarietyDistributor.sol:VarietyDistributor",
            "label": "nextHarvestUntil",
            "offset": 0,
            "slot": "3",
            "type": "t_uint256"
          }
        ],
        "numberOfBytes": "128"
      },
      "t_uint16": {
        "encoding": "inplace",
        "label": "uint16",
        "numberOfBytes": "2"
      },
      "t_uint256": {
        "encoding": "inplace",
        "label": "uint256",
        "numberOfBytes": "32"
      }
    }
  }
}